:100000000C94E3000C940B010C940B010C940B0169
:100010000C940B010C940B010C940B010C940B0130
:100020000C940B010C940B010C944C040C94BE0426
:100030000C940B010C940B010C940B010C940B0110
:100040000C940B010C940B010C940B010C940B0100
:100050000C940B010C940B010C940B010C940204F6
:100060000C940B010C940B010C940B010C940B01E0
:100070000C940B010C940B010C940B010C940B01D0
:100080000C940B010C940B010C940B010C94EE06D8
:100090000C940B010C940B010C940B010C940B01B0
:1000A0000C940B010C940B010C940B01DB03DE038D
:1000B000CD03D103D703FF03FF03FF03E203E603EE
:1000C000EA03F003F403FF03FA03080B0002020241
:1000D00001000904000001020200000524001001D3
:1000E0000524010101042402060524060001070578
:1000F000810310004009040100020A000000070506
:1001000002024000000705830240000004030904C6
:1001100012010002EF020140412337800001010279
:10012000030141726475696E6F204C4C430041724B
:100130006475696E6F204D6963726F000000000086
:10014000240027002A002D003000000000002300BA
:10015000260029002C002F000000000025002800A8
:100160002B002E00310004040404040304050202E1
:100170000202040302020202060606060606040440
:1001800002020204040408020110408040102040D2
:10019000804080080204018040201002011080107D
:1001A000204040200000000200090F00000304016D
:1001B000000C000000000000000000000000000033
:1001C00000000000B50811241FBECFEFDAE0DEBF4B
:1001D000CDBF11E0A0E0B1E0EEEAF1E102C0059090
:1001E0000D92A433B107D9F721E0A4E3B1E001C037
:1001F0001D92A43BB207E1F710E0C3EED0E004C0CB
:100200002197FE010E94CA08C23ED107C9F70E9489
:1002100015070C94D5080C940000FC018091B301E3
:10022000811103C08FEF9FEF08959FB7F89482E08C
:100230008093E9002091F20030E01216130614F4C6
:1002400021E030E02115310559F0289A84E68093A9
:10025000B2018091F10080838091F200882319F02F
:100260009FBFC90108958BE68093E800F9CF2FB7AF
:10027000F89483E08093E9009091E800892F8072E0
:1002800095FF04C09091F20080E4891B2FBF089570
:100290008091AA0181110DC082E08093A60184E0C3
:1002A0008093A7011092A9011092A80181E0809388
:1002B000AA0186EA91E008953FB7F8948091A201DF
:1002C0009091A301A091A401B091A50126B5A89B8E
:1002D00005C02F3F19F00196A11DB11D3FBFBA2FD8
:1002E000A92F982F8827820F911DA11DB11DBC0138
:1002F000CD0142E0660F771F881F991F4A95D1F7FD
:100300000895CF92DF92EF92FF920E945C016B0101
:100310007C010E945C01DC01CB018C199D09AE09B6
:10032000BF09883E9340A105B10598F3FF90EF9077
:10033000DF90CF9008958091910190919201A091CA
:100340009301B09194010196A11DB11D809391017B
:1003500090939201A0939301B0939401809199019D
:1003600090919A01A0919B01B0919C010196A11DD1
:10037000B11D8093990190939A01A0939B01B09332
:100380009C0108954091360150913701209134012C
:100390003091350142175307B4F49091E8009570FD
:1003A000E1F39091E80092FD19C08093F1008091F3
:1003B00036019091370101968F739927892B19F493
:1003C0008EEF8093E800809136019091370101967D
:1003D000909337018093360181E0089580E008957D
:1003E000CF92DF92EF92FF920F931F93CF93DF9301
:1003F0001F92CDB7DEB7182F062FE42E862F880F59
:100400008E5F99830E94C20183E00E94C201F12E97
:10041000C12E9981D92E8C2D8F19801798F4F60151
:10042000E7FE02C0849101C080810E94C201182FA2
:1004300080E00E94C2018123FFEFCF1ADF0A811101
:10044000EACF01C081E00F90DF91CF911F910F9112
:10045000FF90EF90DF90CF900895DF92EF92FF92A0
:100460000F931F93CF93DF93D82E8A017B01E40E65
:10047000F51EEB01CE15DF0571F0D7FE03C0FE01BE
:10048000849101C088810E94C20121968111F2CF1E
:100490008FEF9FEF01C0C801DF91CF911F910F91A6
:1004A000FF90EF90DF9008950F931F93CF93DF930A
:1004B0001F92CDB7DEB782E0898342E450E06AEC58
:1004C00070E080E80E942D020E944801DC01129633
:1004D0000D911C9113970115110569F0D801ED914B
:1004E000FC910280F381E02DBE016F5F7F4FC80158
:1004F000099597FF07C089810F90DF91CF911F91D8
:100500000F910895F80100851185E5CF615030F015
:100510002091F100FC0120830196F8CF289A84E60F
:100520008093B2010895CF92DF92EF92FF920F93E2
:100530001F93CF93DF936C017A018B01C0E0D0E071
:10054000CE15DF0589F0D8016D918D01D601ED91B1
:10055000FC910190F081E02DC6010995892B11F4E1
:100560007E0102C02196ECCFC701DF91CF911F9190
:100570000F91FF90EF90DF90CF9008958F929F9210
:10058000AF92BF92CF92DF92EF92FF920F931F93A1
:10059000CF93DF936C015B017A0180910B0188237B
:1005A00009F456C08091B301882309F451C08091A9
:1005B0003A0180FF05C08091E00082608093E000F6
:1005C000E70110E00AEF83E0882E9AE3992E209746
:1005D000B1F10E943701811105C00150C9F10E949B
:1005E0008101F5CF282F30E0C217D3070CF48C2FF0
:1005F0004FB7F8948092E9009091E80095FF1DC0F4
:10060000282F30E0C21BD30BF501982F915020F01A
:1006100081918093F100FACFA20EB31E112319F03D
:100620009092E80009C08091E80085FD06C0909294
:10063000E80011E0209709F010E04FBFC8CF11117A
:10064000C8CF5D9A84E6809338011E141F0444F0DD
:1006500081E090E0F6019383828380E090E001C026
:10066000C701DF91CF911F910F91FF90EF90DF9025
:10067000CF90BF90AF909F908F900895CF93DF93CE
:100680001F92CDB7DEB76983DC01ED91FC9102804A
:10069000F381E02D41E050E0BE016F5F7F4F09958F
:1006A0000F90DF91CF91089583E08093E9008091CE
:1006B000F200882319F08AE38093E80008950E94ED
:1006C000370190E00895CF93DF931F92CDB7DEB747
:1006D000FC018485958597FD05C02FEF3FEF358799
:1006E00024870BC0CE0101960E940D01019719F4D9
:1006F000898190E002C08FEF9FEF0F90DF91CF9143
:1007000008950F931F93CF93DF931F92CDB7DEB75A
:100710008C01FC018485958597FF0EC0CE01019662
:100720000E940D01019719F4298130E002C02FEFDA
:100730003FEFF80135872487F801848595850F9070
:10074000DF91CF911F910F910895FC0184859585CC
:1007500097FD0BC09FB7F89482E08093E9008091E9
:10076000F2009FBF90E0019608959FB7F89482E051
:100770008093E9008091F2009FBF90E00895089572
:1007800080E090E0089590E0FC013197EF30F105B2
:10079000B0F5EA5AFF4F0C94CA08809180008F7719
:1007A00003C0809180008F7D8093800008958091A8
:1007B0008000877FF9CF84B58F7702C084B58F7DA5
:1007C00084BD0895809190008F7707C0809190003C
:1007D0008F7D03C080919000877F80939000089563
:1007E0008091C0008F7703C08091C0008F7D80937F
:1007F000C00008958091C200877F8093C200089551
:100800000E94D0081F920F920FB60F9211242F93BF
:100810003F938F939F93AF93BF9380919E0190914D
:100820009F01A091A001B091A10130919D0123E011
:10083000230F2D3720F40196A11DB11D05C026E818
:10084000230F0296A11DB11D20939D0180939E014F
:1008500090939F01A093A001B093A1018091A20168
:100860009091A301A091A401B091A5010196A11DB1
:10087000B11D8093A2019093A301A093A401B09312
:10088000A501BF91AF919F918F913F912F910F90B3
:100890000FBE0F901F9018951F920F920FB60F92D8
:1008A00011248F939F938091E1009091E100937FB9
:1008B0009093E10083FF0FC01092E90091E09093C4
:1008C000EB001092EC0092E39093ED001092B301D4
:1008D00098E09093F00082FF20C093E09093E900AD
:1008E0009091F200992319F09AE39093E800909187
:1008F0003801992339F09091380191509093380143
:10090000992389F19091B201992339F09091B20124
:1009100091509093B201992341F184FF10C08091CE
:10092000E2008E7E81608093E2008091E1008F7E04
:100930008093E10080913A018E7E806111C080FF3A
:1009400016C08091E2008E7E80618093E2008091EB
:10095000E1008E7E8093E10080913A018E7E81607D
:1009600080933A0104C05D98CDCF2898D6CF9F914F
:100970008F910F900FBE0F901F9018951F920F929E
:100980000FB60F921124CF92DF92EF92FF920F9346
:100990001F932F933F934F935F936F937F938F9307
:1009A0009F93AF93BF93EF93FF93CF93DF93CDB715
:1009B000DEB76C97DEBFCDBF1092E9008091E800F2
:1009C00083FFEDC168E0CE0145960E94860282EF6A
:1009D0008093E8008D8987FF05C09091E80090FF23
:1009E000FCCF03C09EEF9093E800982F907609F01B
:1009F000C6C09E892F89188D91110CC0803829F4AA
:100A000080913B018093F10002C01092F10010929E
:100A1000F10048C1422F50E0512B913051F4811127
:100A200041C14130510509F03DC180913B018D7FAD
:100A30000BC0933061F4811135C14130510509F08B
:100A400031C180913B01826080933B012BC1953085
:100A500041F48091E80080FFFCCF20682093E30000
:100A600021C1963009F05FC0EB8CFC8C1092E9003C
:100A70001092370110923601123091F51092350123
:100A8000109234010E94540299E0BE016F5F7F4FC3
:100A9000DB01E92F1D92EA95E9F799831A8391E02A
:100AA0009E8390EA98879AEF99872091360130913A
:100AB0003701275F3F4F3C832B838D831092E900E2
:100AC0001092370110923601F0923501E092340114
:100AD00049E050E080E00E942D020E945402E2C0F2
:100AE000F0923501E09234010E944801DC01129637
:100AF000ED90FC901397E114F10409F4C0C0D70104
:100B0000ED91FC910480F581E02DBE016B5E7F4F7D
:100B1000C7010995009719F00CF0C4C0C7C0F701D0
:100B2000E084F184E8CF973009F4C0C0983021F414
:100B300081E08093F100B6C0993009F0B3C08370B2
:100B400009F0B4C0EFE1F1E081E021E036E390810B
:100B5000992361F08093E9002093EB0091919093A9
:100B6000EC003093ED008F5F873089F78EE780933C
:100B7000EA001092EA008F898093B30193C08B8DB5
:100B80009C8D1092E90010923701109236019093DB
:100B9000350180933401898D811156C08E899D89DC
:100BA000913A59F4813209F081C047E050E064E0A5
:100BB00071E080E00E942D0275C0913209F076C08C
:100BC000833289F4888D90E0982F88272F89822B93
:100BD000A0E0B0E08093000190930101A093020196
:100BE000B09303015FC0803269F48091E80082FF16
:100BF000FCCF67E084E091E00E9486028BEF809357
:100C0000E80006C0823209F04DC08F8980930B0145
:100C100080913901882319F0EEEFFAE002C0E0E09C
:100C2000F8E08091040190910501A0910601B09136
:100C30000701803B9440A105B10509F07BC080917C
:100C40000B0180FF93C076C00E944801DC01129620
:100C50000D911C9113970115110541F1D801ED91EA
:100C6000FC910190F081E02DBE016B5E7F4FC801C9
:100C70000995811117C0F80100851185ECCF11305D
:100C800009F44EC0133091F48F89882309F445C0CC
:100C9000823081F440E86DE08EE291E00E94F00144
:100CA000882321F08EEF8093E80079C081E2809361
:100CB000EB0075C0813029F440E86BE082E291E0FE
:100CC000EDCF833099F70E944801DC011296ED9038
:100CD000FC9013978E010F5F1F4F6801E114F10420
:100CE00079F0D701ED91FC910680F781E02DB801F4
:100CF000C7010995080F111DF701E084F184EECFBB
:100D0000D8011C92F60101900020E9F73197BF014C
:100D10006C197D0940E0C601C1CF6CE071E002C0F2
:100D200060E171E06115710509F2FB01449150E049
:100D300080E840CF0FB6F894A89580916000886154
:100D400080936000109260000FBEA895EE3F2AE0ED
:100D5000F20739F08091FE0A9091FF0A9183808317
:100D6000A1CF1092FF0A1092FE0A9CCFEE3F8AE0BC
:100D7000F80731F0808191819093FF0A8093FE0AF9
:100D800087E797E7918380839BE088E10FB6F8942B
:100D9000A895809360000FBE9093600083CF6C96FF
:100DA0000FB6F894DEBF0FBECDBFDF91CF91FF919C
:100DB000EF91BF91AF919F918F917F916F915F91D3
:100DC0004F913F912F911F910F91FF90EF90DF90E6
:100DD000CF900F900FBE0F901F9018951F920F92FB
:100DE0000FB60F9211242F933F934F935F936F93FE
:100DF0007F938F939F93AF93BF93EF93FF93E09174
:100E00008C01F0918D010995FF91EF91BF91AF9108
:100E10009F918F917F916F915F914F913F912F9112
:100E20000F900FBE0F901F901895789484B5826034
:100E300084BD84B5816084BD85B5826085BD85B57E
:100E4000816085BD80916E00816080936E001092FC
:100E50008100809181008260809381008091810077
:100E60008160809381008091800081608093800008
:100E700080919100826080939100809191008160C7
:100E80008093910080919000816080939000809188
:100E9000C10084608093C1008091C1008260809312
:100EA000C1008091C10081608093C1008091C30026
:100EB00081608093C3008091C00082608093C000F5
:100EC0008091C20081608093C20080917A0084602A
:100ED00080937A0080917A00826080937A0080917A
:100EE0007A00816080937A0080917A008068809394
:100EF0007A001092B30110923B0110923A01809156
:100F0000D70081608093D70080EA8093D80089B5AC
:100F1000806189BD89B5826089BD09B400FEFDCFBD
:100F20000E9481018091D8008F7C80618093D800DD
:100F30008091E000807F8093E0008091E1008E7ED0
:100F40008093E1008DE08093E200559A209A5D98AD
:100F50002898EEEFFFE7859194918B3F9C4D19F413
:100F600081E080933901C6E9D1E0FE01249107E7D1
:100F700011E0F8018491882399F090E0880F991F7F
:100F8000FC01E45CFE4FA591B491885A9E4FFC0190
:100F9000459154918FB7F8949C91292B2C938FBF36
:100FA000109291011092920110929301109294016B
:100FB0001092990110929A0110929B0110929C013B
:100FC000109295011092960110929701109298013B
:100FD00080E1809391001092900081E080939001D5
:100FE00020E43FE130938F0120938E0130939700EE
:100FF0002093960091E1909391002BE931E030939A
:101000008D0120938C01809371008FEF9FEF90935F
:10101000490180934801E0913C01F0913D0102803B
:10102000F381E02D4BE050E065E271E08CE391E06C
:101030000995E0913C01F0913D010280F381E02DA2
:1010400042E050E061E371E08CE391E0099545EB0B
:10105000E42E41E0F42E50E2952E60E0C62E60E0D2
:10106000D62E8091990190919A01A0919B01B09107
:101070009C01892B8A2B8B2B09F458C080919501F8
:1010800090919601A0919701B09198010196A11DB0
:10109000B11D8093950190939601A0939701B09311
:1010A0009801F7018491FE01A490F801B490BB204F
:1010B000A1F081110E94C303EB2DF0E0EE0FFF1FA2
:1010C000E65BFE4FA591B4918C91A82291E080E05F
:1010D00009F490E0A92EB82E02C0A12CB12CF70182
:1010E0008491FE017490F80184908820B9F08111F8
:1010F0000E94C303882D90E0880F991F885A9E4F45
:10110000FC01A591B4918FB7F8949C91AB2819F08C
:101110007094792201C0792A7C928FBF1092990134
:1011200010929A0110929B0110929C018091910162
:1011300090919201A0919301B0919401883E9340C7
:10114000A105B10558F08BB189258BB91092910199
:10115000109292011092930110929401C114D10443
:1011600009F47FCF0E9400007CCFECE3F1E0138212
:10117000128288EE93E0A0E0B0E084839583A6839A
:10118000B78380E191E0918380838FEF9FEF958714
:1011900084870895EE0FFF1F0590F491E02D0994C8
:0E11A00081E090E0F8940C94D508F894FFCF0D
:1011AE00FFFFFFFF00E10000000000000000000054
:1011BE003E03BE025F035403A5036303810300C114
:1011CE00808100000054696D6572207374617274C1
:0411DE00000D0A00F6
:00000001FF
