:100000000C94F2000C941A010C941A010C941A012D
:100010000C941A010C941A010C941A010C941A01F4
:100020000C941A010C941A010C9401030C947303A0
:100030000C941A010C941A010C941A010C941A01D4
:100040000C941A010C941A010C941A010C941A01C4
:100050000C941A010C941A010C941A010C94BB060E
:100060000C941A010C941A010C941A010C941A01A4
:100070000C941A010C941A010C941A010C941A0194
:100080000C941A010C941A010C941A010C941A0184
:100090000C941A010C941A010C941A010C941A0174
:1000A0000C941A010C9405070C941A018F0E920EF1
:1000B000890E8C0EB00E9B0EA40EAA0EAD0EA70ECE
:1000C0009E0EA10E950E980EB30E3D0240022F0219
:1000D00033023902610261026102440248024C02A9
:1000E0005202560261025C02000000002500280056
:1000F0002B002E00310000000000240027002A0001
:100100002D0030000404040404030405020202026A
:1001100004030202020206060606060604040202A0
:100120000204040408020110408040102040804076
:10013000800802040180402010020110801020403D
:100140004020000000002300260029002C002F0082
:100150000000000200090F0000030401000C000071
:100160000000000000000000000000000000000887
:100170000B0002020201000904000001020200005B
:1001800005240010010524010101042402060524B0
:100190000600010705810310004009040100020A5E
:1001A000000000070502024000000705830240002E
:1001B000000403090412010002EF02014041233749
:1001C0008000010102030141726475696E6F204C69
:1001D0004C430041726475696E6F204D6963726FA4
:1001E0000000BD1111241FBECFEFDAE0DEBFCDBF8E
:1001F00011E0A0E0B1E0E0E4F9E202C005900D9268
:10020000AA3CB107D9F723E0AAECB1E001C01D92E6
:10021000AE31B207E1F710E0C2EFD0E004C02197A1
:10022000FE010E944214C13FD107C9F70E94210973
:100230000C949E140C9400004091DA015091DB0163
:100240002091D8013091D90142175307B4F490910D
:10025000E8009570E1F39091E80092FD19C0809359
:10026000F1008091DA019091DB0101968F7399275B
:10027000892B19F48EEF8093E8008091DA01909138
:10028000DB0101969093DB018093DA0181E0089510
:1002900080E00895CF92DF92EF92FF920F931F9329
:1002A000CF93DF931F92CDB7DEB7182F062FE42E22
:1002B000862F880F8E5F99830E941C0183E00E9425
:1002C0001C01F12EC12E9981D92E8C2D8F198017EA
:1002D00098F4F601E7FE02C0849101C080810E947B
:1002E0001C01182F80E00E941C018123FFEFCF1A10
:1002F000DF0A8111EACF01C081E00F90DF91CF9139
:100300001F910F91FF90EF90DF90CF900895DF92B3
:10031000EF92FF920F931F93CF93DF93D82E8A0112
:100320007B01E40EF51EEB01CE15DF0571F0D7FE63
:1003300003C0FE01849101C088810E941C012196A6
:100340008111F2CF8FEF9FEF01C0C801DF91CF91F4
:100350001F910F91FF90EF90DF900895615030F062
:100360002091F100FC0120830196F8CF289A84E6C1
:100370008093DD010895CF92DF92EF92FF920F9369
:100380001F93CF93DF936C017A018B01C0E0D0E023
:10039000CE15DF0589F0D8016D918D01D601ED9163
:1003A000FC910190F081E02DC6010995892B11F493
:1003B0007E0102C02196ECCFC701DF91CF911F9142
:1003C0000F91FF90EF90DF90CF900895CF93DF9340
:1003D0001F92CDB7DEB76983DC01ED91FC910280FD
:1003E000F381E02D41E050E0BE016F5F7F4F099542
:1003F0000F90DF91CF91089583E08093E900809181
:10040000F200882319F08AE38093E8000895FC0144
:100410008485958597FD0BC09FB7F89482E0809303
:10042000E9008091F2009FBF90E0019608959FB788
:10043000F89482E08093E9008091F2009FBF90E001
:100440000895089580E090E0089590E0FC013197D0
:10045000EF30F105B0F5EB59FF4F0C944214809149
:1004600080008F7703C0809180008F7D8093800013
:10047000089580918000877FF9CF84B58F7702C07F
:1004800084B58F7D84BD0895809190008F7707C0DB
:10049000809190008F7D03C080919000877F809332
:1004A000900008958091C0008F7703C08091C000B4
:1004B0008F7D8093C00008958091C200877F8093D4
:1004C000C20008953FB7F8948091D4019091D5016E
:1004D000A091D601B091D70126B5A89B05C02F3FAA
:1004E00019F00196A11DB11D3FBFBA2FA92F982F5A
:1004F0008827820F911DA11DB11DBC01CD0142E0D5
:10050000660F771F881F991F4A95D1F708950E949B
:1005100099140F931F93CF93DF931F92CDB7DEB73C
:1005200082E0898342E450E06FE671E080E80E9457
:1005300087010E940D09DC0112960D911C91139701
:100540000115110569F0D801ED91FC910280F3814C
:10055000E02DBE016F5F7F4FC801099597FF07C06F
:1005600089810F90DF91CF911F910F910895F8012C
:1005700000851185E5CF0E94FC0890E008950F9357
:100580001F93CF93DF931F92CDB7DEB78C01FC0191
:100590008485958597FF0EC0CE0101960E94D208F2
:1005A000019719F4298130E002C02FEF3FEFF801E5
:1005B00035872487F801848595850F90DF91CF9149
:1005C0001F910F910895CF93DF931F92CDB7DEB7A0
:1005D000FC018485958597FD05C02FEF3FEF35879A
:1005E00024870BC0CE0101960E94D208019719F40E
:1005F000898190E002C08FEF9FEF0F90DF91CF9144
:1006000008951F920F920FB60F9211248F939F930C
:100610008091E1009091E100937F9093E10083FF4E
:100620000FC01092E90091E09093EB001092EC0063
:1006300092E39093ED001092DE0198E09093F00029
:1006400082FF20C093E09093E9009091F2009923FB
:1006500019F09AE39093E8009091DC01992339F026
:100660009091DC0191509093DC01992389F1909154
:10067000DD01992339F09091DD0191509093DD01D6
:10068000992341F184FF10C08091E2008E7E816049
:100690008093E2008091E1008F7E8093E100809161
:1006A000CB018E7E806111C080FF16C08091E20078
:1006B0008E7E80618093E2008091E1008E7E809347
:1006C000E1008091CB018E7E81608093CB0104C0DC
:1006D0005D98CDCF2898D6CF9F918F910F900FBE68
:1006E0000F901F9018951F920F920FB60F92112422
:1006F000CF92DF92EF92FF920F931F932F933F932E
:100700004F935F936F937F938F939F93AF93BF9319
:10071000EF93FF93CF93DF93CDB7DEB76C97DEBF38
:10072000CDBF1092E9008091E80083FFEDC168E041
:10073000CE0145960E94AE0182EF8093E8008D893C
:1007400087FF05C09091E80090FFFCCF03C09EEFAB
:100750009093E800982F907609F0C6C09E892F8963
:10076000188D91110CC0803829F48091CC018093B0
:10077000F10002C01092F1001092F10048C1422F26
:1007800050E0512B913051F4811141C1413051055C
:1007900009F03DC18091CC018D7F0BC0933061F495
:1007A000811135C14130510509F031C18091CC0131
:1007B00082608093CC012BC1953041F48091E80098
:1007C00080FFFCCF20682093E30021C1963009F020
:1007D0005FC0EB8CFC8C1092E9001092DB01109250
:1007E000DA01123091F51092D9011092D8010E94CD
:1007F000890299E0BE016F5F7F4FDB01E92F1D92F7
:10080000EA95E9F799831A8391E09E8390EA9887A5
:100810009AEF99872091DA013091DB01275F3F4FF2
:100820003C832B838D831092E9001092DB011092A0
:10083000DA01F092D901E092D80149E050E080E07D
:100840000E9487010E948902E2C0F092D901E092E1
:10085000D8010E940D09DC011296ED90FC901397CF
:10086000E114F10409F4C0C0D701ED91FC910480BA
:10087000F581E02DBE016B5E7F4FC70109950097A2
:1008800019F00CF0C4C0C7C0F701E084F184E8CFD0
:10089000973009F4C0C0983021F481E08093F100D2
:1008A000B6C0993009F0B3C0837009F0B4C0EDE070
:1008B000F1E081E021E036E39081992361F08093BB
:1008C000E9002093EB0091919093EC003093ED00C0
:1008D0008F5F873089F78EE78093EA001092EA00F5
:1008E0008F898093DE0193C08B8D9C8D1092E900DF
:1008F0001092DB011092DA019093D9018093D80114
:10090000898D811156C08E899D89913A59F4813221
:1009100009F081C047E050E064E071E080E00E94AF
:10092000870175C0913209F076C0833289F4888DD1
:1009300090E0982F88272F89822BA0E0B0E0809349
:10094000000190930101A0930201B09303015FC0E5
:10095000803269F48091E80082FFFCCF67E084E098
:1009600091E00E94AE018BEF8093E80006C08232D6
:1009700009F04DC08F8980930B018091CA018823B3
:1009800019F0EEEFFAE002C0E0E0F8E08091040137
:1009900090910501A0910601B0910701803B944020
:1009A000A105B10509F07BC080910B0180FF93C0C8
:1009B00076C00E940D09DC0112960D911C911397CF
:1009C0000115110541F1D801ED91FC910190F081E3
:1009D000E02DBE016B5E7F4FC8010995811117C0E4
:1009E000F80100851185ECCF113009F44EC01330A9
:1009F00091F48F89882309F445C0823081F440E85E
:100A00006DE083ED91E00E944A01882321F08EEF92
:100A10008093E80079C081E28093EB0075C081305B
:100A200029F440E86BE087EC91E0EDCF833099F753
:100A30000E940D09DC011296ED90FC9013978E0137
:100A40000F5F1F4F6801E114F10479F0D701ED91B8
:100A5000FC910680F781E02DB801C7010995080FC8
:100A6000111DF701E084F184EECFD8011C92F6014C
:100A700001900020E9F73197BF016C197D0940E032
:100A8000C601C1CF61EB71E002C065EB71E0611599
:100A9000710509F2FB01449150E080E840CF0FB6A8
:100AA000F894A8958091600088618093600010920E
:100AB00060000FBEA895EE3F2AE0F20739F0809162
:100AC000FE0A9091FF0A91838083A1CF1092FF0AC2
:100AD0001092FE0A9CCFEE3F8AE0F80731F0808149
:100AE00091819093FF0A8093FE0A87E797E79183AD
:100AF00080839BE088E10FB6F894A895809360000E
:100B00000FBE9093600083CF6C960FB6F894DEBF53
:100B10000FBECDBFDF91CF91FF91EF91BF91AF910C
:100B20009F918F917F916F915F914F913F912F9105
:100B30001F910F91FF90EF90DF90CF900F900FBE1D
:100B40000F901F901895CF93DF93282F30E0F90175
:100B5000E05BFE4F8491F901ED5DFE4FD491F90108
:100B6000EC5FFE4FC491CC2391F081110E942502CD
:100B7000EC2FF0E0EE0FFF1FEE5BFE4FA591B4915E
:100B8000EC91ED2381E090E021F480E002C080E070
:100B900090E0DF91CF9108951F93CF93DF93282F9B
:100BA00030E0F901E05BFE4F8491F901ED5DFE4F0D
:100BB000D491F901EC5FFE4FC491CC23C9F0162FFC
:100BC00081110E942502EC2FF0E0EE0FFF1FE8518B
:100BD000FF4FA591B4918FB7F894111105C09C9166
:100BE000ED2FE095E92302C0EC91ED2BEC938FBF44
:100BF000DF91CF911F9108958F929F92AF92BF92F4
:100C0000CF92DF92EF92FF926B017C010E94620211
:100C10004B015C01C114D104E104F104F1F00E9424
:100C20006202DC01CB0188199909AA09BB09883E37
:100C30009340A105B10570F321E0C21AD108E10883
:100C4000F10888EE880E83E0981EA11CB11CC11427
:100C5000D104E104F10419F7DDCFFF90EF90DF90AC
:100C6000CF90BF90AF909F908F9008958F929F925A
:100C7000AF92BF92CF92DF92EF92FF920F931F93AA
:100C8000CF93DF935C016B017A0180910B01882384
:100C900009F45BC08091DE01882309F456C080917D
:100CA000CB0180FF05C08091E00082608093E0006E
:100CB000E70110E00AEF83E0882E9AE3992E20974F
:100CC000D9F10E94FC0881110AC0015009F43DC00D
:100CD00061E070E080E090E00E94FC05F0CF282FFA
:100CE00030E0C217D3070CF48C2F4FB7F8948092E2
:100CF000E9009091E80095FF1DC0282F30E0C21B4D
:100D0000D30BF601982F915020F081918093F10040
:100D1000FACFC20ED31E112319F09092E80009C039
:100D20008091E80085FD06C09092E80011E02097D0
:100D300009F010E04FBFC3CF1111C3CF5D9A84E615
:100D40008093DC011E141F0444F081E090E0F50163
:100D50009383828380E090E001C0C701DF91CF914F
:100D60001F910F91FF90EF90DF90CF90BF90AF90C9
:100D70009F908F9008951F920F920FB60F9211249B
:100D80002F933F938F939F93AF93BF938091D00105
:100D90009091D101A091D201B091D3013091CF01B6
:100DA00023E0230F2D3720F40196A11DB11D05C0AE
:100DB00026E8230F0296A11DB11D2093CF01809339
:100DC000D0019093D101A093D201B093D30180912F
:100DD000D4019091D501A091D601B091D70101968F
:100DE000A11DB11D8093D4019093D501A093D6018C
:100DF000B093D701BF91AF919F918F913F912F9168
:100E00000F900FBE0F901F9018951F920F920FB664
:100E10000F9211242F933F934F935F936F937F9380
:100E20008F939F93AF93BF93EF93FF938091400273
:100E30000E94A30520914402309145022F5F3F4F4D
:100E4000309345022093440290914302953618F066
:100E500096E090933F0290913F029430C9F128F4BC
:100E6000923069F09330D1F05EC0953009F451C0F2
:100E7000963009F058C091E09093100351C0811151
:100E800052C020914402309145022436310508F4C5
:100E900042C010921003109243021CC0813009F02E
:100EA00042C0E091430291E09E0F90934302F0E034
:100EB0002091440230914502EE0FFF1FE15CFD4F8F
:100EC00030872783109245021092440294E029C093
:100ED000811117C0E091430291E09E0F909343026D
:100EE000F0E02091440230914502EE0FFF1FE15CDB
:100EF000FD4F30872783109245021092440293E001
:100F000010C020914402309145022536310558F039
:100F100007C0811108C0109245021092440203C01C
:100F200095E090933F02909142029923B9F081118C
:100F30000AC080914102882321F08091410261E042
:100F400009C02D9A0BC080914102882331F0809115
:100F5000410260E00E94CC0501C02D98FF91EF9105
:100F6000BF91AF919F918F917F916F915F914F91C1
:100F70003F912F910F900FBE0F901F901895CF9219
:100F8000DF92EF92FF92CF93DF93EC01072E000CDC
:100F9000880B990B0E94F3126B017C0120E030E07A
:100FA00040E45FE30E94A31320E030E048E452E411
:100FB0000E9449120E94BB12C617D707D4F020E046
:100FC00030E040EA5FE3C701B6010E94A31320E0CE
:100FD00030E048E452E40E94491220E030E040E86A
:100FE0005FE30E94D8110E94BB1221E06C177D07BD
:100FF0000CF420E0822F90E0DF91CF91FF90EF90F2
:10100000DF90CF900895BC01009791F0FC01019012
:101010000020E9F73197AF01481B590BE091EF0130
:10102000F091F0010280F381E02D8FEE91E00994C0
:1010300080E090E008950C9403088F929F92AF9205
:10104000BF920F931F93CF93DF93CDB7DEB7A197D6
:101050000FB6F894DEBF0FBECDBF19A2423008F420
:101060004AE08E010F5D1F4F842E912CA12CB12CD4
:10107000A50194010E942014E62FB901CA01015074
:101080001109EA3014F4E05D01C0E95CD801EC9389
:10109000232B242B252B61F7C8010E940308A1965E
:1010A0000FB6F894DEBF0FBECDBFDF91CF911F9179
:1010B0000F91BF90AF909F908F9008958F929F92C5
:1010C000AF92BF92CF92DF92EF92FF920F931F9356
:1010D000CF93DF93FC01C081D1812091EB0130914E
:1010E000EC01C217D3070CF04BC09E01220F331F37
:1010F000E091E901F091EA01E20FF31F8080918015
:10110000C170DD27F1E0CF27209719F404E610E045
:1011100002C00CE91FEF7A015B016C01040F151F7F
:10112000B801C4010E94BF07892B99F40E0D1F1D41
:10113000B801C4010E94BF07892B71F4B8016E0D7C
:101140007F1DC4010E94BF07892BE9F023E030E036
:1011500005C021E030E002C022E030E0F5018081EE
:1011600091810196821793073CF0F501118210825C
:10117000F60180819181019691838083CE0105C023
:1011800081E090E002C08FEF9FEFDF91CF911F9140
:101190000F91FF90EF90DF90CF90BF90AF909F9016
:1011A0008F900895FC018091DE01811103C08FEFC3
:1011B0009FEF08959FB7F89482E08093E900209113
:1011C000F20030E01216130614F421E030E021158D
:1011D000310559F0289A84E68093DD018091F10071
:1011E00080838091F200882319F09FBFC901089580
:1011F0008BE68093E800F9CF2FB7F89483E08093D3
:10120000E9009091E800892F807295FF04C09091C9
:10121000F20080E4891B2FBF08958091160381118D
:101220000DC082E08093120384E080931303109238
:1012300015031092140381E08093160382E193E07A
:101240000895CF93DF93CDB7DEB72C970FB6F89400
:10125000DEBF0FBECDBF789484B5826084BD84B5F7
:10126000816084BD85B5826085BD85B5816085BDA1
:1012700080916E00816080936E0010928100809159
:1012800081008260809381008091810081608093E1
:101290008100809180008160809380008091910026
:1012A0008260809391008091910081608093910091
:1012B000809190008160809390008091C100846053
:1012C0008093C1008091C10082608093C1008091B1
:1012D000C10081608093C1008091C30081608093D0
:1012E000C3008091C00082608093C0008091C200E2
:1012F00081608093C20080917A00846080937A003C
:1013000080917A00826080937A0080917A00816077
:1013100080937A0080917A00806880937A0010929E
:10132000DE011092CC011092CB018091D700816038
:101330008093D70080EA8093D80089B5806189BD09
:1013400089B5826089BD09B400FEFDCF61E070E01F
:1013500080E090E00E94FC058091D8008F7C806145
:101360008093D8008091E000807F8093E00080919E
:10137000E1008E7E8093E1008DE08093E200559A3B
:10138000209A5D982898EEEFFFE7859194918B3F26
:101390009C4D19F481E08093CA01E4E3F1E02491CB
:1013A000E5E1F1E08491882399F090E0880F991F9E
:1013B000FC01EA50FF4FA591B491FC01E851FF4FA9
:1013C000859194918FB7F894EC91E22BEC938FBFB9
:1013D0008FEF9FEF9093FC018093FB01F8941092A4
:1013E000C00081E08093C1001092C2001092C3003F
:1013F0001092C40083E08093BF0080E28093D1000C
:101400001092BF001092BF001092BE0084E0809343
:101410007200789482E080933F02109243028091A0
:10142000400290E0FC01ED5DFE4F2491FC01EC5F79
:10143000FE4F84918823C9F090E0880F991FFC012A
:10144000EA50FF4F45915491FC01E851FF4FA5919F
:10145000B4919FB7F894FA0180812095822380830C
:101460008C91E22FE823EC939FBF85E291E00E94EC
:10147000030887E391E00E94030844244A94542C13
:10148000320110E2212E312C26E432E03093EA01C1
:101490002093E9018091430290E09093EC018093C6
:1014A000EB018091100390E09093EE018093ED01A9
:1014B00080913F02853009F0BEC280914802909130
:1014C0004902885891098D35910588F4809143022D
:1014D000843041F480914A0290914B028097479763
:1014E00008F4BFC280914302843408F0DEC18091C9
:1014F00043028A3108F44FC080914602909147021E
:10150000843F914068F41092E8011092E701409204
:10151000E3015092E4016092E5017092E60159C046
:10152000809148029091490285974B97A0F5ECE491
:10153000F2E082E090E0C12CD12C7601AC014F5F4B
:101540005F4F2091430230E0421753075CF4DF0104
:1015500012972D913C91275031092730310508F41D
:10156000A4C2CA010197959587959093E80180934D
:10157000E7010C972CF41092E8011092E7010BC0E0
:10158000C092E301D092E401E092E501F092E6011D
:1015900084E090E0B1C3809143028A3108F44CC0EA
:1015A00080914602909147028032934008F4ABCF7D
:1015B0008091480290914902C697869708F492C29A
:1015C0003BC0C092E301D092E401E092E501F092C9
:1015D000E6018BE090E090C32081318125523109F2
:1015E0002B31310508F08EC2CC0CDD1CEE1CFF1C2B
:1015F0006894C0F802963496AC014F5F5F4F20911B
:10160000430230E04217530754F4DF0112972D9143
:101610003C912C5031092B303105F0F2CA01019771
:10162000959587959093E8018093E7010C974CF688
:101630001092E8011092E70180914302823208F48F
:101640004DC080914802909149020697079708F093
:1016500045C0ECE4F2E022E030E0C12CD12C760170
:10166000C90101964091430250E084179507E4F4C4
:10167000DF0112974D915C9111974E5151094731FD
:10168000510508F04CC2CC0CDD1CEE1CFF1C68940C
:10169000C0F840815181349643505109453051057D
:1016A00020F42E5F3F4FDCCFC901019795958795B8
:1016B0009093E8018093E70140972CF41092E801A1
:1016C0001092E7010BC0C092E301D092E401E092D6
:1016D000E501F092E6018CE090E00EC31C821B82D3
:1016E00021E030E03A832983809143028D3008F471
:1016F0006BC049E753E0BE016D5F7F4FCE0101969D
:101700000E945E08892B09F05FC049E753E0BE01E3
:101710006D5F7F4FCE0101960E945E08019709F030
:1017200053C049E753E0BE016D5F7F4FCE01019684
:101730000E945E08892B09F047C0812C912C54012E
:1017400000E010E08091430290E029813A8128175F
:1017500039075CF549E753E0BE016D5F7F4FCE016D
:1017600001960E945E087C0149E753E0BE016D5F6F
:101770007F4FCE0101960E945E0831E0E316F1042E
:1017800049F4892B09F5880C991CAA1CBB1C689488
:1017900080F808C0EF28C1F40197B1F4880C991CB7
:1017A000AA1CBB1C0F5F1F4FCDCF1093E801009305
:1017B000E7018092E3019092E401A092E501B092EA
:1017C000E60181E090E098C21C821B82A1E0B0E0BB
:1017D000BA83A9838091EB019091EC011816190648
:1017E0000CF058C0E091E901F091EA0182E090E04C
:1017F0009A8389838281938189974E9708F04AC0A2
:1018000083E090E09A838983848195810B970A977E
:1018100008F040C04CEB51E0BE016D5F7F4FCE0140
:1018200001960E945E08892BA9F54CEB51E0BE01A0
:101830006D5F7F4FCE0101960E945E08019751F5C2
:10184000812C912C540100E010E029813A81809193
:10185000EB019091EC01281739070CF0A3C14CEB78
:1018600051E0BE016D5F7F4FCE0101960E945E0880
:101870006C010330110509F05FC14CEB51E0BE0172
:101880006D5F7F4FCE0101960E945E08C816D90693
:1018900009F452C1E091E901F091EA01828193815A
:1018A000C697869708F48DC1E8C180914A0290914D
:1018B0004B02825491098E9708F019CE80E090E097
:1018C00040E050E0BA01FC01E45BFD4F2081318132
:1018D000295031092930310508F009CEFC01E25BBD
:1018E000FD4F20813181275131092231310508F026
:1018F000CFC0440F551F661F771F41600496803884
:10190000910509F73092E8012092E7014093E30145
:101910005093E4016093E5017093E601A3E0B0E029
:10192000B093E001A093DF018DEB91E00E941B08D2
:1019300085EC91E00E941B08E091DF01F091E0014D
:101940003197EF30F10508F4E0C18AE391E00E949D
:101950001B0883EA91E00E941B08C090E701D09029
:10196000E8010D2C000CEE08FF08F7FECAC1E0915B
:10197000EF01F091F0010190F081E02D6DE28FEE2A
:1019800091E0099566277727CB016C197D098E09AF
:101990009F094AE00E941D0887EA91E00E941B0807
:1019A0006091E3017091E4018091E5019091E6017D
:1019B00040E10E941D088CEA91E00E941B08809182
:1019C000E3019091E401A091E501B091E601BD0130
:1019D000882799274AE00E941D0885EB91E00E9424
:1019E0001B088091E3019091E401A091E501B09181
:1019F000E601BC01CD01882799274AE00E941D0815
:101A000087E391E00E9403088091E3019091E40153
:101A10009093CE018093CD0182E080933F0210929B
:101A2000430281E10E94A30561E0892B09F060E097
:101A300081E10E94CC055D9864EF71E080E090E068
:101A40000E94FC055D9A64EF71E080E090E00E94E6
:101A5000FC0580E090E0892B09F416CD0E9400007F
:101A600010CD80914C0290914D020997099708F092
:101A700039CD1092E8011092E7014092E3015092B3
:101A8000E4016092E5017092E60183E090E034C1E8
:101A900020813181265031092730310508F027CDCA
:101AA000440F551F661F771F29CF20813181235195
:101AB00031092F30310548F4CC0CDD1CEE1CFF1C25
:101AC0006894C0F80296349639CD208131812A502D
:101AD00031092930310508F05ECDCC0CDD1CEE1C3F
:101AE000FF1CF0CF80914A0290914B02C6978697D7
:101AF00008F0A2CDEEE4F2E083E090E0C12CD12C1E
:101B000076017ACD208131812C5031092A3031057E
:101B100008F092CDCC0CDD1CEE1CFF1C6BCD4D9162
:101B20005C914C5051094B30510508F0D7CDCC0C8D
:101B3000DD1CEE1CFF1CADCD4CEB51E0BE016D5F1A
:101B40007F4FCE0101960E945E087C010330110593
:101B500069F44CEB51E0BE016D5F7F4FCE01019601
:101B60000E945E08E816F90609F094CEC114D1046B
:101B700059F4EA94EF2809F08DCE880C991CAA1C20
:101B8000BB1C689480F80BC0CA94CD2809F082CEA3
:101B9000EF2809F07FCE880C991CAA1CBB1C0F5F94
:101BA0001F4F53CE1093E8010093E7018092E301A9
:101BB0009092E401A092E501B092E60182E090E00B
:101BC0009BC0848195814B97459708F056C0DF01F3
:101BD00016966F0196ECC90ED11C20E030E040E073
:101BE00050E060E070E080E090E0ED90FC901197B4
:101BF00019E0E11AF10818E0E116F104F0F5129687
:101C0000ED90FC90139711E1E11AF1081DE0E11647
:101C1000F10420F501E00E94531421601496AC15E4
:101C2000BD0519F72093E3013093E4014093E501EA
:101C30005093E60100E20E946E142093E10130937C
:101C4000E20185E090E09093E0018093DF0180E382
:101C500090E09093E8018093E70166CE1296ED90B4
:101C6000FC90139714E0E11AF10815E0E116F10475
:101C700020F401E00E945314D1CF809143028933B4
:101C800040F082819381895791098335910508F449
:101C900082C180914302823209F468C082819381BB
:101CA000895791098335910508F4F5C182819381A3
:101CB0008C549109C59708F065C080914302843027
:101CC00009F05BC0848195818097479708F055C0E3
:101CD000868197810997099708F04FC01092E80113
:101CE0001092E7014092E3015092E4016092E50115
:101CF0007092E60187E090E09093E0018093DF012D
:101D000013CE4AE0C701B60145CEEA5AFF4F0C9404
:101D1000421482E491E01BCE86E491E018CE8BE47D
:101D200091E015CE8FE491E012CE83E591E00FCEE5
:101D300088E591E00CCE8EE591E009CE82E691E057
:101D400006CE88E691E003CE83E791E000CE8BE7F4
:101D500091E0FDCD8EE791E0FACD86E891E0F7CDF8
:101D600083E991E0F4CD8DE991E0F1CD8281938119
:101D70000A97099708F46DC191CF8091430284348A
:101D800008F0F1C180914302863460F18281938131
:101D90000C970B9708F436C225C0D90112966D91A5
:101DA0007C9113976E5171096731710508F060C21B
:101DB000D701C601880F991FAA1FBB1F6C017D01A7
:101DC0006894C0F84E5F5F4F2C5F3F4F453451051C
:101DD00009F433C2D9016D917C916C5071096B305B
:101DE0007105D8F280914302883578F18281938120
:101DF000855891098B35910508F44AC226C0BC016B
:101E00006F5F7F4FD8014D915C914750510947302A
:101E1000510508F04CC2220F331F216002960C5F5F
:101E20001F4F4091430250E04450510984179507D9
:101E30000CF046C2A80142505109DA014D915C9163
:101E40004950510948305105D0F280914302803207
:101E5000E1F48281938106970697B8F48481958195
:101E60000997099790F49F012A5F3F4FBF01625C79
:101E70007F4FC12CD12C7601D9014D915C914650F8
:101E800051094630510508F437C22091EB013091D9
:101E9000EC0138872F83263031050CF468C28F019E
:101EA0000A5F1F4F95ECC92E9DE9D92E9CE1E92EC2
:101EB00091E8F92E83E090E09E838D83D8016D91A7
:101EC0007C91F8013497A080B18080E090E00E947E
:101ED000F11269877A878B879C87B50180E090E053
:101EE0000E94F1124B015C012DEC3CEC4CE45FE3F1
:101EF0000E94A3139B01AC0169857A858B859C8523
:101F00000E94441287FD19C02DEC3CEC4CE45FE3C9
:101F100069857A858B859C850E94A3139B01AC0102
:101F2000C501B4010E944412E82F880FFF0BEE2771
:101F3000FF0FEE1FFF27319602C0E0E0F0E0A7019F
:101F4000960163E971E080E091E00E9410146F0156
:101F5000FF0FEE08FF08C626D726E826F926ED81F2
:101F6000FE813196FE83ED830E5F1F4F2F813885F2
:101F7000E217F30709F0A2CFC092E301D092E40187
:101F8000E092E501F092E6013092E8012092E7014B
:101F90008FEF9FEFB1CE84819581CA97899708F022
:101FA00078CE9F012A5F3F4FC12CD12C760143E0B0
:101FB00050E0D9016D917C916A50710969307105C9
:101FC00008F067CED90112966D917C9113976651F6
:101FD00071096131710590F112966D917C911397A1
:101FE000665071096730710508F053CECC0CDD1CCA
:101FF000EE1CFF1C4E5F5F4F2C5F3F4F4B33510574
:10200000C1F69F012A583F4FD9012D913C912A508A
:1020100031092930310508F03CCE2CE130E0309315
:10202000E8012093E701C092E301D092E401E0923D
:10203000E501F092E6018AE090E05ECED701C601AC
:10204000880F991FAA1FBB1F6C017D016894C0F8FF
:10205000D1CF20914302CF01820F911D820F911D9C
:10206000DC0112978D919C910A97099708F016CE82
:102070001092E8011092E7014092E3015092E401CE
:102080006092E5017092E601E6E0F0E0F093E00195
:10209000E093DF0149CC80914302813208F406CEFF
:1020A00084819581CA97899708F000CE9F012A5FA5
:1020B0003F4FC12CD12C760143E050E0D9016D9106
:1020C0007C916A5071096930710508F0EFCDD90132
:1020D00012966D917C91139766517109613171056A
:1020E00090F5D701C601880F991FAA1FBB1F6C016D
:1020F0007D016894C0F84E5F5F4F2C5F3F4F4332C5
:102100005105E1F69F012A5B3F4FD9012D913C918A
:102110002A5031092930310508F0C8CDE0E1F0E05E
:10212000F093E801E093E701C092E301D092E4016B
:10213000E092E501F092E60126E030E03093E00124
:102140002093DF01F1CBD90112966D917C91139709
:10215000665071096730710508F0A8CDCC0CDD1C04
:10216000EE1CFF1CC8CF8481958189549109C397C7
:1021700008F008CE9F012A5F3F4FBF016A577F4F8B
:10218000C12CD12C7601D9014D915C914950510956
:102190004930510508F0F6CDD90112964D915C9168
:1021A00013974651510941315105E0F4D701C60159
:1021B000880F991FAA1FBB1F6C017D016894C0F88E
:1021C0002C5F3F4F26173707F1F63092E801209237
:1021D000E701C092E301D092E401E092E501F092C0
:1021E000E60188CDD90112964D915C911397465026
:1021F00051094730510508F0C5CDCC0CDD1CEE1C53
:10220000FF1CDECF848195810997099708F0EACDFC
:10221000868197818C974F9708F0E4CD80859185D2
:1022200089974D9708F0DECD9F01265F3F4FC12C67
:10223000D12C760145E050E0CDCD9F0126573F4F90
:10224000D9012D913C912C5031092B30310508F0EA
:10225000C9CD3092E8012092E701C092E301D0920B
:10226000E401E092E501F092E60188E090E044CDDF
:10227000D90112966D917C9113976950710969305B
:10228000710508F0AFCDCC0CDD1CEE1CFF1C9ACD07
:1022900084819581825491098E9708F0D6CD8F0163
:1022A000045C1F4F8DE190E020E030E0BACDD80112
:1022B0004D915C914851510942315105D0F0CB010B
:1022C0000197959587959093E8018093E7018A9708
:1022D0000CF4BBCDC901330FAA0BBB0B8093E301F8
:1022E0009093E401A093E501B093E60189E090E0CA
:1022F00003CD220F331F92CDD90112964D915C91DF
:102300001397495151094331510508F5D701C601C9
:10231000880F991FAA1FBB1F6C017D016894C0F82C
:102320002C5F3F4F2617370709F0A6CD2EE030E08F
:102330003093E8012093E701C092E301D092E401D9
:10234000E092E501F092E6018FE090E0D5CCD90172
:1023500012964D915C91139749505109493051059E
:1023600008F093CDCC0CDD1CEE1CFF1CD9CF82E015
:1023700080933F02109243025ECBEFEEF1E01382B6
:10238000128288EE93E0A0E0B0E084839583A68378
:10239000B78387E191E0918380838FEF9FEF9587EB
:1023A0008487EFE3F2E087E0818313820895505839
:1023B000BB27AA270E94EF110C9469130E945B139C
:1023C00038F00E94621320F039F49F3F19F426F48C
:1023D0000C9458130EF4E095E7FB0C945213E92F7C
:1023E0000E947A1358F3BA17620773078407950798
:1023F00020F079F4A6F50C949C130EF4E0950B2EC6
:10240000BA2FA02D0B01B90190010C01CA01A00146
:102410001124FF27591B99F0593F50F4503E68F1A1
:102420001A16F040A22F232F342F4427585FF3CFE2
:10243000469537952795A795F0405395C9F77EF4B3
:102440001F16BA0B620B730B840BBAF09150A1F0FC
:10245000FF0FBB1F661F771F881FC2F70EC0BA0F82
:10246000621F731F841F48F4879577956795B7950A
:10247000F7959E3F08F0B0CF9395880F08F0992705
:10248000EE0F9795879508950E942E1308F481E02A
:1024900008950E945D120C9469130E94621358F013
:1024A0000E945B1340F029F45F3F29F00C94521313
:1024B00051110C949D130C9458130E947A1368F3D5
:1024C0009923B1F3552391F3951B550BBB27AA27ED
:1024D00062177307840738F09F5F5F4F220F331F27
:1024E000441FAA1FA9F335D00E2E3AF0E0E832D0EF
:1024F00091505040E695001CCAF72BD0FE2F29D0F2
:10250000660F771F881FBB1F261737074807AB07C3
:10251000B0E809F0BB0B802DBF01FF2793585F4F38
:102520003AF09E3F510578F00C9452130C949D1391
:102530005F3FE4F3983ED4F3869577956795B7951A
:10254000F7959F5FC9F7880F911D9695879597F925
:102550000895E1E0660F771F881FBB1F621773079E
:102560008407BA0720F0621B730B840BBA0BEE1FB3
:1025700088F7E09508950E94C2126894B1110C94F6
:102580009D1308950E94821388F09F5798F0B92FE9
:102590009927B751B0F0E1F0660F771F881F991F98
:1025A0001AF0BA95C9F714C0B13091F00E949C138B
:1025B000B1E008950C949C13672F782F8827B85F9B
:1025C00039F0B93FCCF3869577956795B395D9F7F0
:1025D0003EF490958095709561957F4F8F4F9F4FFA
:1025E0000895E89409C097FB3EF490958095709506
:1025F00061957F4F8F4F9F4F9923A9F0F92F96E94F
:10260000BB279395F695879577956795B795F111C3
:10261000F8CFFAF4BB0F11F460FF1BC06F5F7F4F60
:102620008F4F9F4F16C0882311F096E911C0772372
:1026300021F09EE8872F762F05C0662371F096E87B
:10264000862F70E060E02AF09A95660F771F881F4A
:10265000DAF7880F9695879597F90895990F0008EE
:10266000550FAA0BE0E8FEEF16161706E807F90764
:10267000C0F012161306E407F50798F0621B730BFF
:10268000840B950B39F40A2661F0232B242B252B80
:1026900021F408950A2609F4A140A6958FEF811D23
:1026A000811D089597F99F6780E870E060E00895C4
:1026B0009FEF80EC089500240A941616170618065A
:1026C0000906089500240A94121613061406050636
:1026D0000895092E0394000C11F4882352F0BB0FC7
:1026E00040F4BF2B11F460FF04C06F5F7F4F8F4F2A
:1026F0009F4F089557FD9058440F551F59F05F3F65
:1027000071F04795880F97FB991F61F09F3F79F013
:1027100087950895121613061406551FF2CF469595
:10272000F1DF08C0161617061806991FF1CF869517
:102730007105610508940895E894BB2766277727FB
:10274000CB0197F908950E94B6130C9469130E9467
:102750005B1338F00E94621320F0952311F00C9463
:1027600052130C94581311240C949D130E947A1345
:1027700070F3959FC1F3950F50E0551F629FF001D4
:10278000729FBB27F00DB11D639FAA27F00DB11DED
:10279000AA1F649F6627B00DA11D661F829F222776
:1027A000B00DA11D621F739FB00DA11D621F839FFD
:1027B000A00D611D221F749F3327A00D611D231FD3
:1027C000849F600D211D822F762F6A2F11249F5721
:1027D00050409AF0F1F088234AF0EE0FFF1FBB1F24
:1027E000661F771F881F91505040A9F79E3F5105E3
:1027F00080F00C9452130C949D135F3FE4F3983EC9
:10280000D4F3869577956795B795F795E7959F5F8C
:10281000C1F7FE2B880F911D9695879597F908951E
:10282000DB018F939F930E944814BF91AF91A29FA9
:10283000800D911DA39F900DB29F900D11240895BE
:10284000A1E21A2EAA1BBB1BFD010DC0AA1FBB1FB4
:10285000EE1FFF1FA217B307E407F50720F0A21B26
:10286000B30BE40BF50B661F771F881F991F1A9493
:1028700069F760957095809590959B01AC01BD01BD
:10288000CF010895EE0FFF1F0590F491E02D0994FC
:102890000E948A14A59F900DB49F900DA49F800D57
:1028A000911D112408950F93083090F0982F872FD1
:1028B000762F652F542F432F322F22270850F4CF25
:1028C000220F331F441F551F661F771F881F991F34
:1028D0000A95B2F70F91089597FB10F81694000827
:1028E0000F93083098F00850232F342F452F562F80
:1028F000672F782F892F902DF4CF05949795879582
:102900007795679557954795379527950A95AAF72F
:102910000F910895A29FB001B39FC001A39F700DB6
:10292000811D1124911DB29F700D811D1124911DD7
:10293000089581E090E0F8940C949E14F894FFCFF1
:10294000FFFFFFFF00E100000000000000C18081E8
:1029500000000000000000E6013606BB02FC010793
:1029600002E302BF024952205265636569766572CF
:10297000207374617274000D0A00554E4B4E4F5710
:102980004E004E454300534F4E59005243350052BE
:1029900043360044495348005348415250004A5678
:1029A000430053414E594F004D49545355424953EA
:1029B00048490053414D53554E47004C4700574836
:1029C000594E54455200414957415F52435F543577
:1029D00030310050414E41534F4E49430044656EE3
:1029E0006F6E0020423A002068563A002056206858
:1029F0006967683A002056206C6F773A0052656329
:0A2A0000656976650020443A000085
:00000001FF
