:100000000C94E3000C940B010C940B010C940B0169
:100010000C940B010C940B010C940B010C940B0130
:100020000C940B010C940B010C9474030C94E603D8
:100030000C940B010C940B010C940B010C940B0110
:100040000C940B010C940B010C940B010C940B0100
:100050000C940B010C940B010C940B010C94D00626
:100060000C940B010C940B010C940B010C940B01E0
:100070000C940B010C940B010C940B010C940B01D0
:100080000C940B010C940B010C940B010C941808AC
:100090000C940B010C940B010C940B010C940B01B0
:1000A0000C940B010C941A070C940B012E023102D4
:1000B000200224022A02520252025202350239025E
:1000C0003D024302470252024D020000000024009C
:1000D00027002A002D003000000000002500280025
:1000E0002B002E0031000000000023002600290014
:1000F0002C002F000404040404030405020202027D
:1001000004030202020206060606060604040202B0
:100110000204040408020110408040102040804086
:10012000800802040180402010020110801020404D
:1001300040200000000200090F0000030401000C31
:1001400000000000000000000000000000000000AF
:1001500000080B0002020201000904000001020273
:1001600000000524001001052401010104240206F9
:100170000524060001070581031000400904010061
:10018000020A000000070502024000000705830282
:100190004000000403090412010002EF0201404183
:1001A00023378000010102030141726475696E6F9B
:1001B000204C4C430041726475696E6F204D696339
:1001C000726F0000201511241FBECFEFDAE0DEBFF2
:1001D000CDBF12E0A0E0B1E0ECE3F0E302C0059097
:1001E0000D92A034B107D9F723E0A0E4B2E001C03A
:1001F0001D92AE3BB207E1F710E0C3EED0E004C0C1
:100200002197FE010E94C017C23ED107C9F70E9484
:10021000460A0C941C180C940000409177025091EF
:100220007802209175023091760242175307B4F498
:100230009091E8009570E1F39091E80092FD19C06B
:100240008093F100809177029091780201968F73EC
:100250009927892B19F48EEF8093E800809177021B
:10026000909178020196909378028093770281E0D2
:10027000089580E00895CF92DF92EF92FF920F935E
:100280001F93CF93DF931F92CDB7DEB7182F062FA2
:10029000E42E862F880F8E5F99830E940D0183E0E4
:1002A0000E940D01F12EC12E9981D92E8C2D8F190E
:1002B000801798F4F601E7FE02C0849101C08081A6
:1002C0000E940D01182F80E00E940D018123FFEF95
:1002D000CF1ADF0A8111EACF01C081E00F90DF91D0
:1002E000CF911F910F91FF90EF90DF90CF900895E5
:1002F000DF92EF92FF920F931F93CF93DF93D82E4D
:100300008A017B01E40EF51EEB01CE15DF0571F0CD
:10031000D7FE03C0FE01849101C088810E940D01B7
:1003200021968111F2CF8FEF9FEF01C0C801DF91BD
:10033000CF911F910F91FF90EF90DF900895615042
:1003400030F02091F100FC0120830196F8CF289A2B
:1003500084E680937A020895CF92DF92EF92FF9223
:100360000F931F93CF93DF936C017A018B01C0E051
:10037000D0E0CE15DF0589F0D8016D918D01D60151
:10038000ED91FC910190F081E02DC6010995892B3A
:1003900011F47E0102C02196ECCFC701DF91CF910D
:1003A0001F910F91FF90EF90DF90CF900895CF9322
:1003B000DF931F92CDB7DEB76983DC01ED91FC912D
:1003C0000280F381E02D41E050E0BE016F5F7F4F7E
:1003D00009950F90DF91CF91089583E08093E90014
:1003E0008091F200882319F08AE38093E800089551
:1003F000FC018485958597FD0BC09FB7F89482E03A
:100400008093E9008091F2009FBF90E001960895EB
:100410009FB7F89482E08093E9008091F2009FBF3B
:1004200090E00895089580E090E0089590E0FC0148
:100430003197EF30F105B0F5EA5AFF4F0C94C01731
:10044000809180008F7703C0809180008F7D8093A2
:100450008000089580918000877FF9CF84B58F77E1
:1004600002C084B58F7D84BD0895809190008F7700
:1004700007C0809190008F7D03C080919000877F9E
:100480008093900008958091C0008F7703C0809181
:10049000C0008F7D8093C00008958091C200877F47
:1004A0008093C20008958091450290914602A091E8
:1004B0004702B09148020196A11DB11D80934502EB
:1004C00090934602A0934702B093480280914D0258
:1004D00090914E02A0914F02B09150020196A11D41
:1004E000B11D80934D0290934E02A0934F02B093A2
:1004F000500208950E9417180F931F93CF93DF9314
:100500001F92CDB7DEB782E0898342E450E061E517
:1005100071E080E80E9478010E94320ADC011296A4
:100520000D911C9113970115110569F0D801ED91FA
:10053000FC910280F381E02DBE016F5F7F4FC80107
:10054000099597FF07C089810F90DF91CF911F9187
:100550000F910895F80100851185E5CF8F929F9244
:10056000AF92BF92CF92DF92EF92FF920F931F93C1
:10057000CF93DF936C015B017A0180910F01882397
:1005800009F456C080917B02882309F451C0809100
:10059000410280FF05C08091E00082608093E0000E
:1005A000E70110E00AEF83E0882E9AE3992E209766
:1005B000B1F10E94210A811105C00150C9F10E94C8
:1005C000DD09F5CF282F30E0C217D3070CF48C2FAC
:1005D0004FB7F8948092E9009091E80095FF1DC014
:1005E000282F30E0C21BD30BF501982F915020F03B
:1005F00081918093F100FACFA20EB31E112319F05E
:100600009092E80009C08091E80085FD06C09092B4
:10061000E80011E0209709F010E04FBFC8CF11119A
:10062000C8CF5D9A84E6809379021E141F0444F0BB
:1006300081E090E0F6019383828380E090E001C046
:10064000C701DF91CF911F910F91FF90EF90DF9045
:10065000CF90BF90AF909F908F9008950E94210AF5
:1006600090E00895CF93DF931F92CDB7DEB7FC01E2
:100670008485958597FD05C02FEF3FEF358724874B
:100680000BC0CE0101960E94F709019719F48981E8
:1006900090E002C08FEF9FEF0F90DF91CF91089510
:1006A0000F931F93CF93DF931F92CDB7DEB78C01CB
:1006B000FC018485958597FF0EC0CE0101960E94AE
:1006C000F709019719F4298130E002C02FEF3FEFBD
:1006D000F80135872487F801848595850F90DF918F
:1006E000CF911F910F9108951F920F920FB60F9205
:1006F00011248F939F938091E1009091E100937F6B
:100700009093E10083FF0FC01092E90091E0909375
:10071000EB001092EC0092E39093ED0010927B02BC
:1007200098E09093F00082FF20C093E09093E9005E
:100730009091F200992319F09AE39093E800909138
:100740007902992339F0909179029150909379022E
:10075000992389F190917A02992339F090917A0244
:10076000915090937A02992341F184FF10C08091B7
:10077000E2008E7E81608093E2008091E1008F7EB6
:100780008093E100809141028E7E806111C080FFE4
:1007900016C08091E2008E7E80618093E20080919D
:1007A000E1008E7E8093E100809141028E7E816027
:1007B0008093410204C05D98CDCF2898D6CF9F91F9
:1007C0008F910F900FBE0F901F9018951F920F9250
:1007D0000FB60F921124CF92DF92EF92FF920F93F8
:1007E0001F932F933F934F935F936F937F938F93B9
:1007F0009F93AF93BF93EF93FF93CF93DF93CDB7C7
:10080000DEB76C97DEBFCDBF1092E9008091E800A3
:1008100083FFEDC168E0CE0145960E949F0182EF03
:100820008093E8008D8987FF05C09091E80090FFD4
:10083000FCCF03C09EEF9093E800982F907609F0CC
:10084000C6C09E892F89188D91110CC0803829F45B
:10085000809142028093F10002C01092F100109248
:10086000F10048C1422F50E0512B913051F48111D9
:1008700041C14130510509F03DC1809142028D7F57
:100880000BC0933061F4811135C14130510509F03D
:1008900031C1809142028260809342022BC1953027
:1008A00041F48091E80080FFFCCF20682093E300B2
:1008B00021C1963009F05FC0EB8CFC8C1092E900EE
:1008C0001092780210927702123091F5109276020F
:1008D000109275020E947C0299E0BE016F5F7F4F0B
:1008E000DB01E92F1D92EA95E9F799831A8391E0DC
:1008F0009E8390EA98879AEF9987209177023091AA
:100900007802275F3F4F3C832B838D831092E90051
:100910001092780210927702F0927602E0927502BD
:1009200049E050E080E00E9478010E947C02E2C031
:10093000F0927602E09275020E94320ADC01129671
:10094000ED90FC901397E114F10409F4C0C0D701B5
:10095000ED91FC910480F581E02DBE016B5E7F4F2F
:10096000C7010995009719F00CF0C4C0C7C0F70182
:10097000E084F184E8CF973009F4C0C0983021F4C6
:1009800081E08093F100B6C0993009F0B3C0837064
:1009900009F0B4C0E9E3F1E081E021E036E39081C1
:1009A000992361F08093E9002093EB00919190935B
:1009B000EC003093ED008F5F873089F78EE78093EE
:1009C000EA001092EA008F8980937B0293C08B8D9E
:1009D0009C8D1092E9001092780210927702909309
:1009E000760280937502898D811156C08E899D890A
:1009F000913A59F4813209F081C047E050E068E053
:100A000071E080E00E94780175C0913209F076C0F3
:100A1000833289F4888D90E0982F88272F89822B44
:100A2000A0E0B0E08093040190930501A09306013B
:100A3000B09307015FC0803269F48091E80082FFC3
:100A4000FCCF67E088E091E00E949F018BEF8093EC
:100A5000E80006C0823209F04DC08F8980930F01F3
:100A600080914002882319F0EEEFFAE002C0E0E046
:100A7000F8E08091080190910901A0910A01B091DC
:100A80000B01803B9440A105B10509F07BC080912A
:100A90000F0180FF93C076C00E94320ADC011296DB
:100AA0000D911C9113970115110541F1D801ED919C
:100AB000FC910190F081E02DBE016B5E7F4FC8017B
:100AC0000995811117C0F80100851185ECCF11300F
:100AD00009F44EC0133091F48F89882309F445C07E
:100AE000823081F440E86DE085EB91E00E943B01AB
:100AF000882321F08EEF8093E80079C081E2809313
:100B0000EB0075C0813029F440E86BE089EA91E0A0
:100B1000EDCF833099F70E94320ADC011296ED90F6
:100B2000FC9013978E010F5F1F4F6801E114F104D1
:100B300079F0D701ED91FC910680F781E02DB801A5
:100B4000C7010995080F111DF701E084F184EECF6C
:100B5000D8011C92F60101900020E9F73197BF01FE
:100B60006C197D0940E0C601C1CF63E971E002C0A4
:100B700067E971E06115710509F2FB01449150E0EC
:100B800080E840CF0FB6F894A89580916000886106
:100B900080936000109260000FBEA895EE3F2AE09F
:100BA000F20739F08091FE0A9091FF0A91838083C9
:100BB000A1CF1092FF0A1092FE0A9CCFEE3F8AE06E
:100BC000F80731F0808191819093FF0A8093FE0AAB
:100BD00087E797E7918380839BE088E10FB6F894DD
:100BE000A895809360000FBE9093600083CF6C96B1
:100BF0000FB6F894DEBF0FBECDBFDF91CF91FF914E
:100C0000EF91BF91AF919F918F917F916F915F9184
:100C10004F913F912F911F910F91FF90EF90DF9097
:100C2000CF900F900FBE0F901F901895CF93DF932A
:100C3000282F30E0F901EE5CFE4F8491F901ED5E62
:100C4000FE4FD491F901EC50FF4FC491CC2391F0A9
:100C500081110E941602EC2FF0E0EE0FFF1FEA5107
:100C6000FF4FA591B491EC91ED2381E090E021F448
:100C700080E002C080E090E0DF91CF9108951F9363
:100C8000CF93DF93282F30E0F901EE5CFE4F849183
:100C9000F901ED5EFE4FD491F901EC50FF4FC49184
:100CA000CC23C9F0162F81110E941602EC2FF0E020
:100CB000EE0FFF1FE852FF4FA591B4918FB7F89444
:100CC000111105C09C91ED2FE095E92302C0EC9134
:100CD000ED2BEC938FBFDF91CF911F910895CF93B0
:100CE000DF9390E0FC01ED5EFE4F2491FC01EC509F
:100CF000FF4F8491882361F190E0880F991FFC01D8
:100D0000E653FF4FC591D491FC01E852FF4FA591E6
:100D1000B491611109C09FB7F8948881209582230E
:100D20008883EC912E230BC0623061F49FB7F89456
:100D30003881822F809583238883EC912E2B2C93EE
:100D40009FBF06C08FB7F894E8812E2B28838FBFF2
:100D5000DF91CF9108953FB7F894809171029091FF
:100D60007202A0917302B091740226B5A89B05C0CF
:100D70002F3F19F00196A11DB11D3FBFBA2FA92F1A
:100D8000982F8827820F911DA11DB11DBC01CD0197
:100D900042E0660F771F881F991F4A95D1F7089583
:100DA0001F920F920FB60F9211242F933F938F93A0
:100DB0009F93AF93BF9380916D0290916E02A0912B
:100DC0006F02B091700230916C0223E0230F2D3737
:100DD00020F40196A11DB11D05C026E8230F02963F
:100DE000A11DB11D20936C0280936D0290936E0241
:100DF000A0936F02B0937002809171029091720281
:100E0000A0917302B09174020196A11DB11D80934F
:100E1000710290937202A0937302B0937402BF9117
:100E2000AF919F918F913F912F910F900FBE0F9097
:100E30001F9018951F920F920FB60F9211242F93A7
:100E40003F934F935F936F937F938F939F93AF9352
:100E5000BF93EF93FF938091DD020E9416062091CD
:100E6000E1023091E2022F5F3F4F3093E202209384
:100E7000E1029091E002953618F096E09093DC0242
:100E80009091DC029430C9F128F4923069F09330EB
:100E9000D1F05EC0953009F451C0963009F058C0C9
:100EA00091E09093AD0351C0811152C02091E102B5
:100EB0003091E2022436310508F442C01092AD03AD
:100EC0001092E0021CC0813009F042C0E091E002C3
:100ED00091E09E0F9093E002F0E02091E1023091CA
:100EE000E202EE0FFF1FE452FD4F3087278310927E
:100EF000E2021092E10294E029C0811117C0E09152
:100F0000E00291E09E0F9093E002F0E02091E10278
:100F10003091E202EE0FFF1FE452FD4F308727832E
:100F20001092E2021092E10293E010C02091E102DF
:100F30003091E2022536310558F007C0811108C012
:100F40001092E2021092E10203C095E09093DC025D
:100F50009091DF029923B9F081110AC08091DE02DD
:100F6000882321F08091DE0261E009C02D9A0BC038
:100F70008091DE02882331F08091DE0260E00E94E1
:100F80003F0601C02D98FF91EF91BF91AF919F91C6
:100F90008F917F916F915F914F913F912F910F9022
:100FA0000FBE0F901F901895CF92DF92EF92FF9295
:100FB000CF93DF93EC01072E000C880B990B0E9456
:100FC00071166B017C0120E030E040E45FE30E9499
:100FD000211720E030E048E452E40E94C7150E9447
:100FE0003916C617D707D4F020E030E040EA5FE3B7
:100FF000C701B6010E94211720E030E048E452E426
:101000000E94C71520E030E040E85FE30E945615DB
:101010000E94391621E06C177D070CF420E0822F26
:1010200090E0DF91CF91FF90EF90DF90CF90089507
:101030001F920F920FB60F9211242F933F934F934D
:101040005F936F937F938F939F93AF93BF93EF9330
:10105000FF93E0914302F09144020995FF91EF91D3
:10106000BF91AF919F918F917F916F915F914F91C0
:101070003F912F910F900FBE0F901F901895CF9317
:10108000DF93EC0161E08FE00E943F0661E08EE0BB
:101090000E943F0661E08BE00E943F0661E08AE02B
:1010A0000E943F06C430D10579F4809102019091ED
:1010B00003018430910541F4C0910001D0910101F8
:1010C0009093010180930001D7FD2EC0C430D1055B
:1010D00084F0C430D10541F5809102019091030163
:1010E00090930101809300018EEF91E00E94F1083E
:1010F0001BC0FE01EE0FFF1FE05FFE4F60E080812E
:101100000E943F068DE092E00E946709BE016F5F7A
:101110007F4F072E000C880B990B4AE00E94FF08B6
:101120008BEA91E00E94D908D0930301C093020199
:10113000DF91CF910895CF93DF93EC0161E082E0DE
:101140000E943F0661E083E00E943F06C130D10566
:10115000C9F0C230D10579F0CD2B41F588E192E09C
:101160000E94F1081092490210924A0210924B021A
:1011700010924C021BC060E083E00E943F0682E2B6
:1011800092E006C060E082E00E943F0681E392E0C8
:101190000E94F1088CED95E0A0E0B0E08093490258
:1011A00090934A02A0934B02B0934C02DF91CF91EF
:1011B0000895BC01009791F0FC0101900020E9F72F
:1011C0003197AF01481B590BE0918C02F0918D02D1
:1011D0000280F381E02D8CE892E0099480E090E0B9
:1011E0000895CF93DF930E94D908EC018BEA91E038
:1011F0000E94D9088C0F9D1FDF91CF9108958F9287
:101200009F92AF92BF920F931F93CF93DF93CDB76F
:10121000DEB7A1970FB6F894DEBF0FBECDBF19A2FF
:10122000423008F44AE08E010F5D1F4F842E912C4E
:10123000A12CB12CA50194010E949E17E62FB901A3
:10124000CA0101501109EA3014F4E05D01C0E95C03
:10125000D801EC93232B242B252B61F7C8010E9486
:10126000D908A1960FB6F894DEBF0FBECDBFDF91AF
:10127000CF911F910F91BF90AF909F908F90089545
:10128000CF92DF92EF92FF92CF93DF936B017C01BD
:10129000E0918C02F0918D020190F081E02D6DE2E1
:1012A0008CE892E00995EC0166277727CB016C1951
:1012B0007D098E099F094AE00E94FF088C0F9D1F3F
:1012C000DF91CF91FF90EF90DF90CF9008950C9435
:1012D000D9088F929F92AF92BF92CF92DF92EF92F6
:1012E000FF920F931F93CF93DF93FC01C081D181B5
:1012F0002091880230918902C217D3070CF04BC0AD
:101300009E01220F331FE0918602F0918702E20FC7
:10131000F31F80809180C170DD27F1E0CF272097F7
:1013200019F404E610E002C00CE91FEF7A015B013A
:101330006C01040F151FB801C4010E94D407892B4A
:1013400099F40E0D1F1DB801C4010E94D407892B0A
:1013500071F4B8016E0D7F1DC4010E94D407892B62
:10136000E9F023E030E005C021E030E002C022E0F7
:1013700030E0F501808191810196821793073CF05E
:10138000F50111821082F60180819181019691838D
:101390008083CE0105C081E090E002C08FEF9FEF17
:1013A000DF91CF911F910F91FF90EF90DF90CF9041
:1013B000BF90AF909F908F900895CF92DF92EF9261
:1013C000FF920E94AB066B017C010E94AB06DC0120
:1013D000CB018C199D09AE09BF09883E9340A10538
:1013E000B10598F3FF90EF90DF90CF900895FC0146
:1013F00080917B02811103C08FEF9FEF08959FB70B
:10140000F89482E08093E9002091F20030E0121617
:10141000130614F421E030E02115310559F0289A23
:1014200084E680937A028091F10080838091F200BB
:10143000882319F09FBFC90108958BE68093E800C7
:10144000F9CF2FB7F89483E08093E9009091E800FA
:10145000892F807295FF04C09091F20080E4891B6F
:101460002FBF08958091B60381110DC082E0809353
:10147000B20384E08093B3031092B5031092B403D7
:1014800081E08093B60382EB93E00895CF93DF93DE
:10149000CDB7DEB72C970FB6F894DEBF0FBECDBF29
:1014A000789484B5826084BD84B5816084BD85B53F
:1014B000826085BD85B5816085BD80916E0081604B
:1014C00080936E00109281008091810082608093F1
:1014D00081008091810081608093810080918000F3
:1014E0008160809380008091910082608093910060
:1014F0008091910081608093910080919000816043
:10150000809390008091C10084608093C10080919D
:10151000C10082608093C1008091C100816080938E
:10152000C1008091C30081608093C3008091C0009E
:1015300082608093C0008091C20081608093C2006D
:1015400080917A00846080937A0080917A00826032
:1015500080937A0080917A00816080937A008091F4
:101560007A00806880937A0010927B021092420287
:10157000109241028091D70081608093D70080EA69
:101580008093D80089B5806189BD89B5826089BDA5
:1015900009B400FEFDCF0E94DD098091D8008F7C48
:1015A00080618093D8008091E000807F8093E0008C
:1015B0008091E1008E7E8093E1008DE08093E200D7
:1015C000559A209A5D982898EEEFFFE785919491BF
:1015D0008B3F9C4D19F481E08093400261E082E0F2
:1015E0000E946F0661E082E00E943F0661E083E0B6
:1015F0000E946F0661E083E00E943F0680E090E079
:101600000E949B0800E111E0D801FC900E5F1F4F83
:1016100061E08F2D0E946F0661E08F2D0E943F06D2
:10162000B1E008311B0781F761E084E00E946F069A
:1016300060E084E00E943F0661E085E00E946F0662
:1016400061E086E00E946F0660E082E10E946F0622
:1016500082E10E941606909363028093620261E029
:1016600081E10E946F0661E081E10E943F06F894EB
:101670001092C00011E01093C1001092C2001092AD
:10168000C3001092C40083E08093BF0080E2809387
:10169000D1001092BF001092BF001092BE0084E0F3
:1016A00080937200789482E08093DC021092E002D2
:1016B0008091DD0260E00E946F0610924502109258
:1016C0004602109247021092480210924D02109268
:1016D0004E0210924F021092500210926802109225
:1016E000690210926A0210926B0280E1809391006D
:1016F000109290001093530280E49FE19093520265
:1017000080935102909397008093960081E180939B
:10171000910083E592E090934402809343021093FA
:1017200071008FEF9FEF90939902809398028CE560
:1017300091E00E94F10880ED97E090935D02809324
:101740005C0244244A94542C320110E2212E312CA4
:1017500080914D0290914E02A0914F02B0915002A3
:10176000892B8A2B8B2B09F407C5809168029091F5
:101770006902A0916A02B0916B020196A11DB11D90
:101780008093680290936902A0936A02B0936B02FF
:101790008091640290916502A0916602B091670207
:1017A000892B8A2B8B2B89F482E10E94160661E03B
:1017B000892B09F060E085E00E943F0682E10E94EB
:1017C0001606682F86E00E943F0600916202109183
:1017D000630282E10E94160608171907C1F082E130
:1017E0000E941606909363028093620289E691E05C
:1017F0000E9467098091620290916302892B19F01F
:1018000083EE91E002C080EF91E00E94F108E3EEE8
:10181000F2E0F0938702E09386028091E00290E08C
:1018200090938902809388028091AD0390E0909319
:101830008B0280938A028091DC02853009F0B5C268
:101840008091E5029091E602885891098D359105C5
:1018500088F48091E002843041F48091E702909115
:10186000E8028097479708F4D1C18091E002843460
:1018700008F0A4C48091E0028A3108F44FC080913E
:10188000E3029091E402843F914068F41092850253
:1018900010928402409280025092810260928202F1
:1018A0007092830259C08091E5029091E60285977B
:1018B0004B97A0F5E9EEF2E082E090E0C12CD12C4C
:1018C0007601AC014F5F5F4F2091E00230E042179C
:1018D00053075CF4DF0112972D913C912750310999
:1018E0002730310508F4B0C4CA0101979595879552
:1018F00090938502809384020C972CF410928502B9
:10190000109284020BC0C0928002D0928102E092B9
:101910008202F092830284E090E08EC18091E00226
:101920008A3108F44CC08091E3029091E402803245
:10193000934008F4ABCF8091E5029091E602C69700
:10194000869708F49EC43BC0C0928002D092810268
:10195000E0928202F09283028BE090E06DC12081E0
:101960003181255231092B31310508F09AC4CC0C54
:10197000DD1CEE1CFF1C6894C0F802963496AC0186
:101980004F5F5F4F2091E00230E04217530754F45D
:10199000DF0112972D913C912C5031092B303105EC
:1019A000F0F2CA01019795958795909385028093EF
:1019B00084020C974CF6109285021092840280915A
:1019C000E0028232E8F18091E5029091E60206970A
:1019D0000797B0F5E9EEF2E082E090E0C12CD12C5F
:1019E00076019C012F5F3F4F4091E00250E02417A9
:1019F00035076CF4DF0112974D915C9111974E51B0
:101A000051094731510508F470C458C4C901019700
:101A100095958795909385028093840240972CF446
:101A200010928502109284020BC0C0928002D09264
:101A30008102E0928202F09283028CE090E0FCC08E
:101A40001C821B8281E090E09A8389838091E0026E
:101A50008D3008F46BC049E753E0BE016D5F7F4FE6
:101A6000CE0101960E946909892B09F05FC049E700
:101A700053E0BE016D5F7F4FCE0101960E94690960
:101A8000019709F053C049E753E0BE016D5F7F4FF6
:101A9000CE0101960E946909892B09F047C0812C6B
:101AA000912C540100E010E08091E00290E0298147
:101AB0003A81281739075CF549E753E0BE016D5FAD
:101AC0007F4FCE0101960E9469097C0149E753E0EE
:101AD000BE016D5F7F4FCE0101960E94690931E022
:101AE000E316F10449F4892B09F5880C991CAA1C0A
:101AF000BB1C689480F808C0EF28C1F40197B1F4CA
:101B0000880C991CAA1CBB1C0F5F1F4FCDCF1093D4
:101B10008502009384028092800290928102A092BA
:101B20008202B092830281E090E086C01C821B8218
:101B300081E090E09A838983809188029091890264
:101B4000181619060CF058C0E0918602F091870231
:101B500082E090E09A8389838281938189974E976E
:101B600008F04AC083E090E09A838983848195815C
:101B70000B970A9708F040C04CEB51E0BE016D5F37
:101B80007F4FCE0101960E946909892BA9F54CEB84
:101B900051E0BE016D5F7F4FCE0101960E94690941
:101BA000019751F5812C912C540100E010E029811E
:101BB0003A818091880290918902281739070CF0A8
:101BC000D1C34CEB51E0BE016D5F7F4FCE0101965A
:101BD0000E9469096C010330110509F08DC34CEBBB
:101BE00051E0BE016D5F7F4FCE0101960E946909F1
:101BF000C816D90609F480C3E0918602F0918702E5
:101C000082819381C6978697E0F0D3C38091E902E1
:101C10009091EA020997099708F027CE1092850261
:101C2000109284024092800250928102609282025D
:101C30007092830283E090E090937D0280937C0217
:101C40004AC0848195814B97459708F0B2C3DF0164
:101C500016967F0186ECE80EF11C20E030E040E0B3
:101C600050E060E070E080E090E00D911C911197F1
:101C7000095011090830110508F09BC312960D9107
:101C80001C911397015111090D30110508F079C30A
:101C900001E00E94D11721601496AE15BF0529F707
:101CA00020938002309381024093820250938302FA
:101CB00000E20E94EC1720937E0230937F0285E0C1
:101CC00090E090937D0280937C0280E390E090937B
:101CD00085028093840282E10E941606892B09F016
:101CE0005DC38CE791E00E94670987E991E00E945B
:101CF00067098FE991E00E94670960917C02709109
:101D00007D02072E000C880B990B97FF4AC30E9497
:101D1000400983EA91E00E94670960918402709112
:101D20008502072E000C880B990B97FF3EC30E947B
:101D3000400987EA91E00E946709609180027091F2
:101D40008102809182029091830240E10E94FF080B
:101D50008BEA91E00E94D9088091800290918102E3
:101D6000A0918202B091830280935E0290935F0201
:101D7000A0936002B093610282E08093DC02109233
:101D8000E00260E086E00E943F0660E085E00E949D
:101D90003F0688EC90E0A0E0B0E08093640290936E
:101DA0006502A0936602B093670280915C029091F5
:101DB0005D02892BE9F080915C0290915D020197B0
:101DC00090935D0280935C0280915C0290915D0231
:101DD000892B71F461E081E10E943F069FE088E178
:101DE0000FB6F894A895809360000FBE90936000A2
:101DF0008091640290916502A0916602B0916702A1
:101E0000892B8A2B8B2BD9F08091640290916502EB
:101E1000A0916602B09167020197A109B109809370
:101E2000640290936502A0936602B093670280916A
:101E3000640290916502A0916602B0916702809160
:101E4000490290914A02A0914B02B0914C02892B19
:101E50008A2B8B2B19F18091490290914A02A09113
:101E60004B02B0914C020197A109B109809349023C
:101E700090934A02A0934B02B0934C028091490286
:101E800090914A02A0914B02B0914C02892B8A2B6F
:101E90008B2B21F480E090E00E949B0880915802F7
:101EA00090915902A0915A02B0915B02892B8A2B22
:101EB0008B2B61F18091580290915902A0915A02A6
:101EC000B0915B020197A109B109809358029093E8
:101ED0005902A0935A02B0935B02809158029091EC
:101EE0005902A0915A02B0915B02892B8A2B8B2B4D
:101EF00069F482E10E941606892B41F08EEA91E096
:101F00000E94F10860E084E00E943F0680915E023A
:101F100090915F02A0916002B09161028F3F9F4F4C
:101F2000AF4FBF4F81F48091540290915502A09120
:101F30005602B091570280935E0290935F02A09385
:101F40006002B093610280915E0290915F02A09165
:101F50006002B09161028D31924EAF4FB105A1F593
:101F600089EC91E00E94F10882E10E941606892B1B
:101F700099F48AED91E00E94F1088091020190911C
:101F80000301049721F084E090E00E943F0860E0A4
:101F900084E00E943F0618C087EE91E00E94F1089D
:101FA00061E084E00E943F0680ED97E0A0E0B0E0B1
:101FB0008093580290935902A0935A02B0935B0207
:101FC00084E090E00E943F0880915E0290915F0261
:101FD000A0916002B09161028F369049AF4FB10578
:101FE00019F480E18093910082E10E941606892B0A
:101FF00009F0A2C080915E0290915F02A091600200
:10200000B09161028739F8E69F07FFEFAF07B1058E
:10201000A9F1B0F4873E38E193073FEFA307B1057C
:1020200099F18F3CE0E39E07EFEFAE07B10549F170
:102030008F3E9041AF4FB10559F583E090E026C047
:10204000873528EA92072FEFA207B10579F08F3183
:1020500030EE93073FEFA307B10559F085389A4753
:10206000AF4FB105A9F482E090E010C081E090E0AC
:1020700002C082E090E00E949B080AC084E090E0E9
:1020800005C080E090E002C081E090E00E943F083F
:102090008091B0030E9416068C018091AF030E94CC
:1020A0001606000F111F802BE091AE03EF7024E0A5
:1020B000E29FF0011124E80FF11DE45EFE4F108154
:1020C0001093AE031073C1F183EF91E00E94670992
:1020D000103119F087E591E002C081E591E00E949E
:1020E000F1088091020190910301103191F4843044
:1020F000910551F480910001909101018430910586
:10210000C9F480E090E016C083309105D4F70196C1
:1021100011C08430910551F480910001909101012A
:102120008430910539F483E090E004C01816190654
:10213000D4F701970E943F0880915E0290915F0260
:10214000A0916002B0916102809354029093550275
:10215000A0935602B093570210925E0210925F0253
:10216000109260021092610210924D0210924E0283
:1021700010924F02109250028091450290914602B7
:10218000A0914702B0914802883E9340A105B10555
:1021900068F09BB180E289278BB9A895109245021F
:1021A00010924602109247021092480280E090E09E
:1021B000892B09F4CDCA0E940000C7CA8091E702AA
:1021C0009091E802825491098E9708F053CB80E0F9
:1021D00090E040E050E0BA01FC01E751FD4F208162
:1021E0003181295031092930310508F043CBFC01F8
:1021F000E551FD4F208131812751310922313105CF
:10220000B0F4440F551F661F771F41600496803855
:10221000910511F73092850220928402409380024A
:1022200050938102609382027093830203CD2081D8
:102230003181265031092730310508F01BCB440F7E
:10224000551F661F771FE2CF20813181235131094D
:102250002F30310578F0208131812A503109293021
:10226000310508F05BCBCC0CDD1CEE1CFF1C02968C
:10227000349627CBCC0CDD1CEE1CFF1C6894C0F8F8
:10228000F6CF8091E7029091E802C697869708F012
:1022900096CBEBEEF2E083E090E0C12CD12C7601FE
:1022A0006ECB208131812C5031092A30310508F064
:1022B00086CBCC0CDD1CEE1CFF1C5FCB4D915C91E2
:1022C0004C5051094B30510508F0BACBCC0CDD1CF9
:1022D000EE1CFF1C4081518134964350510945301A
:1022E000510508F093CB02967CCBCC0CDD1CEE1C88
:1022F000FF1C6894C0F8EECF4CEB51E0BE016D5F5F
:102300007F4FCE0101960E9469097C0103301105BF
:1023100069F44CEB51E0BE016D5F7F4FCE01019639
:102320000E946909E816F90609F066CCC114D104C7
:1023300059F4EA94EF2809F05FCC880C991CAA1C88
:10234000BB1C689480F80BC0CA94CD2809F054CC0B
:10235000EF2809F051CC880C991CAA1CBB1C0F5FFC
:102360001F4F25CC10938502009384028092800237
:1023700090928102A0928202B092830282E090E069
:102380005BCC12960D911C911397045011090530E6
:10239000110578F401E00E94D1177ECC89E891E024
:1023A000A2CC4AE00E94FF08B4CC4AE00E94FF0899
:1023B000C0CC8091E002893370F18281938189578A
:1023C00091098335910508F46FC125C0D901129692
:1023D0006D917C911397665171096131710508F017
:1023E0008FC1D701C601880F991FAA1FBB1F6C019F
:1023F0007D016894C0F84E5F5F4F2C5F3F4F4B33B9
:10240000510509F460C1D9016D917C916A5071093F
:1024100069307105D8F28091E002823231F4828114
:1024200093810A97099708F47BC182819381895728
:10243000910983359105D0F48091E0028132B0F0AA
:1024400084819581CA97899788F49F012A5F3F4FBD
:10245000C12CD12C760143E050E0D9016D917C91E3
:102460006A5071096930710508F478C182819381DD
:102470008C549109C59778F48091E002843031F44E
:10248000848195818097479708F4CAC18091E002C2
:10249000843408F0ACC18091E002863460F182811E
:1024A00093810C970B9708F408C225C0D9011296A6
:1024B0006D917C9113976E5171096731710508F028
:1024C00017C2D701C601880F991FAA1FBB1F6C0135
:1024D0007D016894C0F84E5F5F4F2C5F3F4F4534DD
:1024E000510509F414C2D9016D917C916C507109A8
:1024F0006B307105D8F28091E002883578F18281E5
:102500009381855891098B35910508F41BC226C02B
:10251000BC016F5F7F4FD8014D915C9147505109CD
:102520004730510508F01DC2220F331F216002966B
:102530000C5F1F4F4091E00250E044505109841756
:1025400095070CF017C2A80142505109DA014D91CC
:102550005C914950510948305105D0F28091E00218
:102560008032E1F48281938106970697B8F48481E2
:1025700095810997099790F49F012A5F3F4FBF010A
:10258000625C7F4FC12CD12C7601D9014D915C91B9
:10259000465051094630510508F408C2209188027E
:1025A0003091890238872F83263031050CF438C2E8
:1025B0008F010A5F1F4F83E090E09E838D8335EC8F
:1025C000C32E3DE9D32E3CE1E32E31E8F32ED801B2
:1025D0006D917C91F8013497A080B18080E090E00B
:1025E0000E946F1669877A878B879C87B50180E088
:1025F00090E00E946F164B015C012DEC3CEC4CE42A
:102600005FE30E9421179B01AC0169857A858B8568
:102610009C850E94C21587FD19C02DEC3CEC4CE452
:102620005FE369857A858B859C850E9421179B01D4
:10263000AC01C501B4010E94C215E82F880FFF0B41
:10264000EE27FF0FEE1FFF27319602C0E0E0F0E01B
:10265000A701960163E971E080E091E00E948E1786
:102660006F01FF0FEE08FF08C626D726E826F926D9
:10267000ED81FE813196FE83ED830E5F1F4F2F812A
:102680003885E217F30709F0A2CFC0928002D092FA
:102690008102E0928202F0928302309285022092BF
:1026A00084028FEF9FEFC8CA84819581CA9789976A
:1026B00008F0B1CE9F012A5F3F4FC12CD12C76018B
:1026C00043E050E0A0CE9F012A583F4FD9012D9101
:1026D0003C912A5031092930310508F09CCE2CE17B
:1026E00030E03093850220938402C0928002D09221
:1026F0008102E0928202F09283028AE090E09CCA1A
:10270000D90112966D917C911397665071096730CB
:10271000710508F080CECC0CDD1CEE1CFF1C6BCECE
:102720002091E002CF01820F911D820F911DDC01EB
:1027300012978D919C910A97099708F076CE109286
:10274000850210928402409280025092810260922F
:10275000820270928302E6E0F0E068C1D90112962D
:102760006D917C911397665171096131710578F50E
:10277000D701C601880F991FAA1FBB1F6C017D01DD
:102780006894C0F84E5F5F4F2C5F3F4F4332510556
:1027900009F063CE9F012A5B3F4FD9012D913C91F7
:1027A0002A5031092930310508F060CEE0E1F0E02F
:1027B000F0938502E0938402C0928002D09281025D
:1027C000E0928202F092830226E030E034C1D90127
:1027D00012966D917C91139766507109673071055F
:1027E00008F044CECC0CDD1CEE1CFF1CCBCF84814A
:1027F000958189549109C39708F04DCE9F012A5FB6
:102800003F4FBF016A577F4FC12CD12C7601D901B0
:102810004D915C914950510949305105B0F03BCE82
:10282000868197810997099708F030CE109285022A
:102830001092840240928002509281026092820241
:102840007092830227E030E0F6C0D90112964D91D4
:102850005C9113974651510941315105F0F4D7016C
:10286000C601880F991FAA1FBB1F6C017D016894C8
:10287000C0F82C5F3F4F2617370749F63092850284
:1028800020928402C0928002D0928102E092820261
:10289000F0928302E7E0F0E0C9C0D90112964D91B1
:1028A0005C911397465051094730510508F0F3CD1C
:1028B000CC0CDD1CEE1CFF1CDCCF848195810997BC
:1028C000099708F018CE868197818C974F9708F06A
:1028D00012CE8085918589974D9708F00CCE9F0187
:1028E000265F3F4FC12CD12C760145E050E0FBCD57
:1028F00012966D917C911397695071096930710539
:1029000008F0F9CDCC0CDD1CEE1CFF1CE4CD9F01C2
:1029100026573F4FD9012D913C912C5031092B3036
:10292000310508F0E8CD3092850220928402C092F1
:102930008002D0928102E0928202F092830288E0CB
:1029400090E07AC984819581825491098E9708F02C
:1029500005CE8F01045C1F4F8DE190E020E030E058
:10296000E9CDD8014D915C91485151094231510551
:10297000D0F0CB0101979595879590938502809330
:1029800084028A970CF4EACDC901330FAA0BBB0B62
:102990008093800290938102A0938202B09383027D
:1029A00089E090E049C9220F331FC1CDD9011296A9
:1029B0004D915C911397495151094331510528F1CB
:1029C00012964D915C911397495051094930510528
:1029D00008F0E4CDCC0CDD1CEE1CFF1C2C5F3F4F3F
:1029E0002617370709F0D1CD2EE030E0309385026D
:1029F00020938402C0928002D0928102E0928202EF
:102A0000F09283028FE090E017C9D701C601880FCA
:102A1000991FAA1FBB1F6C017D016894C0F8DECF0F
:102A200082E08093DC021092E002BFC9F0937D0245
:102A3000E0937C0250C930937D0220937C024BC905
:102A4000CF93DF93ECE8F2E01382128288EE93E0FA
:102A5000A0E0B0E084839583A683B78383E491E00C
:102A6000918380838FEF9FEF95878487ECEDF2E071
:102A700087E081831382CEEAD3E088E0898389E00E
:102A80008A8360E088E00E946F0660E08A810E948D
:102A90006F0661E089810E943F0661E08A810E94A1
:102AA0003F061882DF91CF9108955058BB27AA277F
:102AB0000E946D150C94E7160E94D91638F00E94FA
:102AC000E01620F039F49F3F19F426F40C94D61642
:102AD0000EF4E095E7FB0C94D016E92F0E94F8164F
:102AE00058F3BA17620773078407950720F079F443
:102AF000A6F50C941A170EF4E0950B2EBA2FA02D04
:102B00000B01B90190010C01CA01A0011124FF279A
:102B1000591B99F0593F50F4503E68F11A16F04095
:102B2000A22F232F342F4427585FF3CF4695379594
:102B30002795A795F0405395C9F77EF41F16BA0B59
:102B4000620B730B840BBAF09150A1F0FF0FBB1F07
:102B5000661F771F881FC2F70EC0BA0F621F731F50
:102B6000841F48F4879577956795B795F7959E3FAD
:102B700008F0B0CF9395880F08F09927EE0F97953E
:102B8000879508950E94AC1608F481E008950E948C
:102B9000DB150C94E7160E94E01658F00E94D91637
:102BA00040F029F45F3F29F00C94D01651110C9499
:102BB0001B170C94D6160E94F81668F39923B1F3EC
:102BC000552391F3951B550BBB27AA276217730753
:102BD000840738F09F5F5F4F220F331F441FAA1FE7
:102BE000A9F335D00E2E3AF0E0E832D091505040A3
:102BF000E695001CCAF72BD0FE2F29D0660F771F51
:102C0000881FBB1F261737074807AB07B0E809F036
:102C1000BB0B802DBF01FF2793585F4F3AF09E3FBB
:102C2000510578F00C94D0160C941B175F3FE4F319
:102C3000983ED4F3869577956795B795F7959F5FFE
:102C4000C9F7880F911D9695879597F90895E1E04A
:102C5000660F771F881FBB1F621773078407BA07A9
:102C600020F0621B730B840BBA0BEE1F88F7E09504
:102C700008950E9440166894B1110C941B17089592
:102C80000E94001788F09F5798F0B92F9927B751E5
:102C9000B0F0E1F0660F771F881F991F1AF0BA9500
:102CA000C9F714C0B13091F00E941A17B1E008952D
:102CB0000C941A17672F782F8827B85F39F0B93F1F
:102CC000CCF3869577956795B395D9F73EF49095B3
:102CD0008095709561957F4F8F4F9F4F0895E89431
:102CE00009C097FB3EF490958095709561957F4F54
:102CF0008F4F9F4F9923A9F0F92F96E9BB27939502
:102D0000F695879577956795B795F111F8CFFAF411
:102D1000BB0F11F460FF1BC06F5F7F4F8F4F9F4F42
:102D200016C0882311F096E911C0772321F09EE8A0
:102D3000872F762F05C0662371F096E8862F70E006
:102D400060E02AF09A95660F771F881FDAF7880FE0
:102D50009695879597F90895990F0008550FAA0B36
:102D6000E0E8FEEF16161706E807F907C0F012169E
:102D70001306E407F50798F0621B730B840B950BA1
:102D800039F40A2661F0232B242B252B21F40895F6
:102D90000A2609F4A140A6958FEF811D811D089593
:102DA00097F99F6780E870E060E008959FEF80ECFE
:102DB000089500240A9416161706180609060895A1
:102DC00000240A9412161306140605060895092E07
:102DD0000394000C11F4882352F0BB0F40F4BF2B76
:102DE00011F460FF04C06F5F7F4F8F4F9F4F0895B6
:102DF00057FD9058440F551F59F05F3F71F04795AC
:102E0000880F97FB991F61F09F3F79F08795089590
:102E1000121613061406551FF2CF4695F1DF08C0AF
:102E2000161617061806991FF1CF869571056105CC
:102E300008940895E894BB2766277727CB0197F974
:102E400008950E9434170C94E7160E94D91638F0A2
:102E50000E94E01620F0952311F00C94D0160C94EB
:102E6000D61611240C941B170E94F81670F3959F28
:102E7000C1F3950F50E0551F629FF001729FBB2771
:102E8000F00DB11D639FAA27F00DB11DAA1F649F0D
:102E90006627B00DA11D661F829F2227B00DA11DC0
:102EA000621F739FB00DA11D621F839FA00D611D46
:102EB000221F749F3327A00D611D231F849F600D67
:102EC000211D822F762F6A2F11249F5750409AF090
:102ED000F1F088234AF0EE0FFF1FBB1F661F771F1C
:102EE000881F91505040A9F79E3F510580F00C94E7
:102EF000D0160C941B175F3FE4F3983ED4F38695ED
:102F000077956795B795F795E7959F5FC1F7FE2B86
:102F1000880F911D9695879597F90895DB018F93FA
:102F20009F930E94C617BF91AF91A29F800D911DE4
:102F3000A39F900DB29F900D11240895A1E21A2E27
:102F4000AA1BBB1BFD010DC0AA1FBB1FEE1FFF1F4D
:102F5000A217B307E407F50720F0A21BB30BE40B9D
:102F6000F50B661F771F881F991F1A9469F76095E4
:102F70007095809590959B01AC01BD01CF0108959E
:102F8000EE0FFF1F0590F491E02D09940E940818A0
:102F9000A59F900DB49F900DA49F800D911D1124AD
:102FA00008950F93083090F0982F872F762F652F74
:102FB000542F432F322F22270850F4CF220F331FD4
:102FC000441F551F661F771F881F991F0A95B2F768
:102FD0000F91089597FB10F8169400080F9308308E
:102FE00098F00850232F342F452F562F672F782F16
:102FF000892F902DF4CF05949795879577956795B0
:1030000057954795379527950A95AAF70F910895F3
:10301000A29FB001B39FC001A39F700D811D112419
:10302000911DB29F700D811D1124911D089581E0A5
:0C30300090E0F8940C941C18F894FFCF6A
:10303C0004000400FFFFFFFF00E10000000000009F
:10304C000F000E000B000A00030002000002040037
:10305C00030001100302000003020100060004003B
:10306C00060500200605040000C180810000000058
:10307C00000000D701AE022E03ED01F8013203501F
:10308C00037269676874006C6566740050726561E0
:10309C006D70207374617274006D61696E20706F55
:1030AC00776572206368616E67652000506F776585
:1030BC0072206973204F6E2000506F776572206903
:1030CC0073206F6666200052656365697665002023
:1030DC00443A0020423A0020563A000D0A00506F44
:1030EC00776572204661756C74203B20476F2070A9
:1030FC006F776572206F6666004B657920506F772D
:10310C006572204F6E2F4F666600476F20506F77A9
:10311C006572204F666600476F20506F776572208E
:10312C004F6E0053656C6563746F72203A00536583
:10313C006C20696E707574204D5554450053656C48
:10314C0020696E70757420004D6F746F72204F463D
:10315C0046004D6F746F7220766F6C202D204F4E91
:10316C00004D6F746F7220766F6C202B204F4E00C9
:00000001FF
